:100000000C9460030C947D030C947D030C949A086B
:100010000C947D030C947D030C947D030C947D0360
:100020000C947D030C947D030C947D030C947D0350
:100030000C947D030C947D030C947D030C947D0340
:100040000C947D030C947D030C947D030C947D0330
:100050000C947D030C947D030C947D030C947D0320
:100060000C947D030C947D030C947D030C947D0310
:1000700000000000005C00000C000C007C287C28C4
:1000800058DC68002410480028542840000C000068
:10009000007884008478000054385400107C1000EC
:1000A00080400000101010000040000060100C00A4
:1000B00038543800487C40004864580044542C00B0
:1000C0001C107C005C5424003854240064140C0080
:1000D00068542C0048543800004800008048000054
:1000E0001028440028282800442810000454080040
:1000F00038445C00781478007C5428003844280088
:100100007C4438007C5444007C140400384474005F
:100110007C107C00447C440020403C007C106C003F
:100120007C4040007C187C0078103C00384438004B
:100130007C1408003844B8007C146800485424003B
:10014000047C04007C407C003C603C007C307C00F3
:100150006C106C000C700C0064544C00007C44006B
:100160000C106000447C00000804080080808000BF
:1001700000040800304878007C48300030484800CF
:1001800030487C00306850001078140090A8780047
:100190007C08700050744000808074007C106800FF
:1001A000447C4000781078007808700030483000B7
:1001B000F82810003048F80078100800505828003F
:1001C000083C4800384078003840380078207800F3
:1001D0004830480098A0780048685800107884009B
:1001E000007C00008478100008040804000000006F
:1001F0000000005F00000007000700147F147F1458
:10020000242A7F2A1223130864623649552250009B
:1002100005030000001C2241000041221C00082AA6
:100220001C2A0808083E080800503000000808088A
:100230000808006060000020100804023E51494593
:100240003E00427F400042615149462141454B31C9
:100250001814127F1027454545393C4A4949300159
:10026000710905033649494936064949291E0036B0
:100270003600000056360000000814224114141401
:10028000141441221408000201510906324979412F
:100290003E7E1111117E7F494949363E414141223E
:1002A0007F4141221C7F494949417F090901013EA3
:1002B000414151327F0808087F00417F41002040C2
:1002C000413F017F081422417F404040407F0204AB
:1002D000027F7F0408107F3E4141413E7F090909AA
:1002E000063E4151215E7F09192946464949493157
:1002F00001017F01013F4040403F1F2040201F7F00
:100300002018207F631408146303047804036151E8
:1003100049454300007F4141020408102041417FCC
:100320000000040201020440404040400001020479
:100330000020545454787F4844443838444444207E
:10034000384444487F3854545418087E0901020840
:100350001454543C7F0804047800447D400020403D
:10036000443D00007F10284400417F40007C041879
:1003700004787C0804047838444444387C14141409
:1003800008081414187C7C080404084854545420A9
:10039000043F4440203C4040207C1C2040201C3C2A
:1003A0004030403C44281028440C5050503C446499
:1003B000544C44000836410000007F0000004136E4
:1003C000080002010302010000000000000000001C
:1003D000065F5F0600000000070700070700001423
:1003E0007F7F147F7F1400242E6B6B3A120000462F
:1003F0006630180C666200307A4F5D377A48000428
:1004000007030000000000001C3E634100000000E4
:1004100041633E1C000000082A3E1C1C3E2A0808BE
:10042000083E3E0808000000A0E060000000000850
:100430000808080808000000006060000000006074
:1004400030180C060301003E7F594D7F3E000042EC
:10045000427F7F40400000627359496F660000226E
:100460006349497F360000181C16137F7F10002750
:100470006745457D3900003C7E4B497930000003DB
:100480006371190F070000367F49497F3600000667
:100490004F49693F1E000000006C6C000000000026
:1004A000A0EC6C00000000081C3663410000001442
:1004B00014141414140000004163361C08000002D8
:1004C0000351590F0600003E7F415D5D1F1E007CF9
:1004D0007E13137E7C0000417F7F49497F36001CDC
:1004E0003E634141632200417F7F41637F1C0041A5
:1004F0007F7F495D416300417F7F491D0103001CEF
:100500003E6341517372007F7F08087F7F000000C7
:10051000417F7F41000000307040417F3F0100413A
:100520007F7F081C776300417F7F41406070007FC0
:100530007F060C067F7F007F7F060C187F7F001CE4
:100540003E6341633E1C00417F7F49090F06001E48
:100550003F21717F5E0000417F7F19396F46002681
:10056000674D597B32000003417F7F410300007FCC
:100570007F40407F7F00001F3F60603F1F00007F83
:100580007F3018307F7F0063771C081C776300077B
:100590004F78784F0700006773594D47637100002B
:1005A0007F7F41410000000103060C18306000000D
:1005B00041417F7F000000080C0603060C08008004
:1005C000808080808080800000030704000000207D
:1005D0007454543C784000413F7F44447C38003898
:1005E0007C44446C280000307848493F7F40003804
:1005F0007C54545C180000487E7F49030200009838
:10060000BCA4A4F87C0400417F7F08047C7800002F
:10061000447D7D4000000040C484FD7D0000004119
:100620007F7F10386C440000417F7F400000007CD9
:100630007C0C180C7C78007C7C04047C78000038EE
:100640007C44447C38000084FCF8A4243C18001846
:100650003C24A4F8FC8400447C78441C1800004826
:100660005C54547424000000043E7F442400003C89
:100670007C40403C7C40001C3C60603C1C00003CDA
:100680007C6030607C3C00446C3810386C44009CCA
:10069000BCA0A0FC7C00004C64745C4C64000008AE
:1006A000083E7741410000000000777700000041DC
:1006B00041773E0808000002030103020301000025
:1006C00011241FBECFEFD4E0DEBFCDBF13E0A0E00A
:1006D000B1E0E6E5F3E202C005900D92AA31B10760
:1006E000D9F723E0AAE1B3E001C01D92A633B20717
:1006F000E1F70E947F030C94A9110C940000CF93A2
:10070000DF93CDB7DEB72B970FB6F894DEBF0FBEE1
:10071000CDBF8FE190E00E94EC030E94F9030E949C
:1007200097040E9490080E940E060E94B60A0E943A
:1007300095060E9481070E94EB0B0E941B0BFE0195
:10074000339689E0DF011D928A95E9F783E290E014
:100750009A83898385E08B8320E233E041E253E092
:1007600062E273E083E293E00E94C00480911E0382
:10077000811110921E030F2EFCE18F2EF3E09F2EAD
:10078000F02D0F2EFAE1AF2EF3E0BF2EF02D0F2E3D
:10079000F9E2CF2EF3E0DF2EF02D0F2EF0E0EF2E5A
:1007A000F1E0FF2EF02D04E213E020E233E041E21D
:1007B00053E062E273E083E293E00E94A109CE017C
:1007C00001960E94160AD7CF5D9BFECF8CB9089583
:1007D0005F9BFECF8CB1089590BD89B988E18AB93D
:1007E0008EE880BD68EE73E084EE93E00E94BD0C5D
:1007F000089585B7806885BF80B7806280BF0895FF
:10080000FB01F85E80830895985EFC018081089565
:10081000CF92DF92EF92FF920F931F93CF93DF93CC
:100820008EE091E00E941E0D0E94AD0C6C010E94B2
:10083000B20CD0E0C0E010E000E00F2EF5E2EF2EA9
:10084000F1E0FF2EF02D05C02196C11598E0D907E3
:10085000F1F00E94AD0CFE01F85E80832081281724
:1008600099F399279F938F931F922F93DF93CF93A1
:10087000FF92EF920E94080D0F5F1F4F8DB79EB73A
:1008800008960FB6F8949EBF0FBE8DBFDDCFC60190
:100890000E94B20CD0E0C0E0F12CE12C0F2EFFE55D
:1008A000CF2EF1E0DF2EF02D05C02196C11598E086
:1008B000D907F1F00E94AD0CFE01F85E20812817E7
:1008C000A1F399279F938F931F922F93DF93CF9339
:1008D000DF92CF920E94080D8FEFE81AF80A8DB7C9
:1008E0009EB708960FB6F8949EBF0FBE8DBFDDCFA2
:1008F000FF92EF921F930F938DE991E09F938F9357
:100900000E94080D0F900F900F900F900F900F9076
:10091000DF91CF911F910F91FF90EF90DF90CF90DB
:100920000895E0910201F0910301108208950F9360
:100930001F93CF93DF931F92CDB7DEB78D9A83E4D9
:100940008FBD89E18EBD82E090E09BBD8ABD04E051
:1009500010E00E949104E0910201F0910301808176
:100960008983808189838081898380818983015003
:10097000110979F70F90DF91CF911F910F91089591
:10098000CF92DF92EF92FF920F931F93CF93DF935B
:100990006C017B018A01E9010E949104E09102014E
:1009A000F09103018081F6018083E0910201F091D2
:1009B00003018081F7018083E0910201F09103013E
:1009C0008081F8018083E0910201F0910301808130
:1009D0008883DF91CF911F910F91FF90EF90DF906F
:1009E000CF900895CF92DF92EF92FF920F931F93D3
:1009F000CF93DF936B017A01E901F801DC016C917F
:100A00006E53770B41E7469FC001479F900D11241D
:100A100024E630E0B9010E94390C6083D6016C9164
:100A20006E53770B469FC001479F900D1124B9016B
:100A30000E94390C6183D7018C9138EC389FC0013A
:100A400011240FEF10E0B8010E94390C62838881F5
:100A5000389FC0011124B8010E94390C6383DF91D3
:100A6000CF911F910F91FF90EF90DF90CF9008955D
:100A7000FC01808121812456330BA9019AF0845610
:100A8000990B9C01A2F04217530714F181818C331A
:100A900098F081818D38B0F082E090E0FB01918385
:100AA0008083089544275527421B530BE8CF222704
:100AB0003327281B390BE7CF83E090E0FB019183BC
:100AC0008083089584E090E0FB0191838083089502
:100AD00080818C3348F080818D3850F484E090E040
:100AE000FB01918380830895FB0111821082089598
:100AF00081E090E0FB01918380830895823091052D
:100B000081F038F40097B1F0019789F48FEF91E00C
:100B100008958330910541F0049749F48DE092E007
:100B2000089585E092E0089588E092E0089585E1D7
:100B300092E008958AEF91E008950F931F93CF9369
:100B4000DF93EC018B0188811F928F938DE192E0FE
:100B50009F938F930E94080D89811F928F938EE23D
:100B600092E09F938F930E94080D8A811F928F932A
:100B70008FE392E09F938F930E94080D8B811F92C9
:100B80008F9380E592E09F938F930E94080DF80168
:100B9000808191810E947E059F938F9381E692E0F0
:100BA0009F938F930E94080D8DB79EB744960FB602
:100BB000F8949EBF0FBE8DBFDF91CF911F910F9113
:100BC00008956F927F928F929F92AF92BF92CF9231
:100BD000DF92EF92FF920F931F93CF93DF93EC017D
:100BE0006B015A0149010E94C0049401A501B6019C
:100BF000CE010E94F204B701C8010E943805DF91BE
:100C0000CF911F910F91FF90EF90DF90CF90BF9009
:100C1000AF909F908F907F906F90089587B3806A78
:100C200087BBBC9AC49A81E58DB98B9A8C9AB89A85
:100C3000949A939AC09A089580E287BB80E48DB914
:100C400008958FB9779903C08FB1779BFDCF089531
:100C50008FB9779903C08FB1779BFDCF8FB108957E
:100C600080E00E9428060895779BFECF8FB10895FB
:100C70009398949AC09A08959498939AC09A0895D4
:100C8000939A949AC09A0895C098939A949A0895C2
:100C90003A98329A08953A9A329A0895CF93C82F83
:100CA0000E944B060E9438068C2F0E9421060E944B
:100CB0004006CF910895CF93C82F0E9448060E9406
:100CC00038068C2F0E9421060E944006CF9108957D
:100CD0008770806B0E945B060895CF93C82F8F703A
:100CE0000E945B068C2F82958F7080610E945B064C
:100CF000CF910895CF93DF930E94680680E00E9411
:100D00006D06C0E8D0E080E00E944E062197D9F73A
:100D1000DF91CF910895CF93C0E08C2F0E947A0687
:100D2000CF5FC830D1F7CF9108958EEA0E945B065D
:100D300080E20E945B0682E00E945B0681EA0E94DC
:100D40005B0688EC0E945B0683ED0E945B0680E0F8
:100D50000E945B0680E40E945B068FEA0E945B06AD
:100D60000E948B060895CF93DF93D82FC0E08C2F7D
:100D70000E9468068D2F0E946D0680E00E944E063C
:100D8000CF5FC038A1F7DF91CF910895CF93C62FE1
:100D90000E9468068C2F0E946D06CF9108950E94D4
:100DA000C60688E10E944E068CE30E944E068EE73E
:100DB0000E944E0688E10E944E0688E10E944E067F
:100DC00008950F931F93CF93DF93962FD22FC0EEEA
:100DD000C80FCF3580F4642F892F0E94C606D53006
:100DE00011F1D83051F0D43009F43AC0DF91CF91ED
:100DF0001F910F910895C0E0EECFD0E0CC0FDD1F22
:100E0000CC0FDD1FCC0FDD1F8E0109531C4FC153CA
:100E1000DC4FF80184910E944E060F5F1F4F0C17A4
:100E20001D07B9F7E3CF8CE30E944E0688E10E94CC
:100E30004E06D0E0CE01880F991F880F991FC80F6A
:100E4000D91F8E0104511E4FCF50DE4FF8018491FF
:100E50000E944E060F5F1F4F0C171D07B9F7C6CF34
:100E6000D0E0CC0FDD1FCC0FDD1F8E0100591F4FCE
:100E7000CC58DF4FF80184910E944E060F5F1F4F40
:100E80000C171D07B9F7B2CFEF92FF920F931F9384
:100E9000CF93DF937C01D62FC42F022FFC018081DA
:100EA000882311F110E00EC0202F40E06D2F0E942A
:100EB000E106C0E01F5FC85FF701E10FF11D80810F
:100EC000882391F02C2F30E0285F3F4F21383105E7
:100ED0002CF0DF5FD83041F7D0E0E6CF202F4C2F49
:100EE0006D2F0E94E106E6CFDF91CF911F910F9108
:100EF000FF90EF90089580528F3508F4089580E0B8
:100F0000FDCF0E948B0628E042E360E08AE792E092
:100F10000E94440724E040E062E08FE792E00E94F4
:100F2000440724E040E064E085E892E00E94440742
:100F300068E282E00E94CF060895CF93DF93EB0131
:100F4000FC018081918182309105C9F00397D9F429
:100F500088819981892BB9F482E00E947A0624E085
:100F600040E062E08FE792E00E94440768E584E099
:100F70000E94CF0681E090E09983888304C0888135
:100F80009981019719F0DF91CF91089584E00E9433
:100F90007A0624E040E064E085E892E00E9444079D
:100FA00068E282E00E94CF0619821882ECCF82E0CC
:100FB0000E94AC0A83E00E94AC0A8FEF9FEB01977E
:100FC000F1F700C0000082E00E94B10A83E00E94B5
:100FD000B10A8FEF9FEB0197F1F700C0000081E0AD
:100FE0000E94AC0A84E00E94AC0A8FEF9FEB01974D
:100FF000F1F700C0000081E00E94B10A84E00E9485
:10100000B10A8FEF9FEB0197F1F700C0000080E07D
:101010000E94AC0A85E00E94AC0A8FEF9FEB01971B
:10102000F1F700C0000080E00E94B10A85E00E9454
:10103000B10A0895C0E08C2F0E94AC0A89E999E0BA
:101040000197F1F700C0CF5FC730A9F78FEF9FEB93
:101050000197F1F700C00000C6E08C2F0E94B10A92
:1010600089E999E00197F1F700C0C150F6CFCF931D
:10107000DF93EC01FB0180819181009729F00197BA
:1010800099F0DF91CF9108950E948B0628E04EE100
:1010900063E080E992E00E9444070E94D70781E064
:1010A00090E099838883EDCF0E948B0628E044E18D
:1010B00060E085E892E00E94440724E040E062E0BE
:1010C00089E992E00E94440724E040E064E08CE972
:1010D00092E00E94440724E040E066E08FE992E05D
:1010E0000E9444070E94D70782E090E0998388839A
:1010F000C8CF0F931F93CF93DF93FC01818186FDAF
:1011000005C0DF91CF911F910F910895EA018B01E6
:101110000E948107F8011182108219821882F1CF92
:10112000F8948A9885B7816085BF8BB780628BBF42
:10113000789408951F920F920FB60F9211242F9357
:101140003F934F935F936F937F938F939F93AF934F
:10115000BF93EF93FF9381E080931E0320E233E07F
:1011600041E253E062E273E083E293E00E94C00454
:10117000FF91EF91BF91AF919F918F917F916F916F
:101180005F914F913F912F910F900FBE0F901F9045
:10119000189585E590E0A0E0B0E08093C02A909398
:1011A000C12AA093C22AB093C32A2FEF8FE796E1FA
:1011B000215080409040E1F700C000C082B394E02D
:1011C000892782BB0E94E80399270E94E40382EAF0
:1011D00092E09F938F930E94080D0F900F900895B7
:1011E0008A9A319A8AB38FEF8ABB399885E58BBB8F
:1011F000399A39988AEA8BBB08950E9408040895A9
:101200006F927F928F929F92AF92BF92CF92DF9216
:10121000EF92FF920F931F93CF93DF93EC016B013B
:101220005A0149010E94C0049401A501B601CE01F2
:101230000E94F204B701C8010E943805B701C80135
:101240000E949D05DF91CF911F910F91FF90EF902C
:10125000DF90CF90BF90AF909F908F907F906F90D6
:101260000895CF93DF931F92CDB7DEB70E94380663
:101270008AEA0E9421062FEF8FEF92E021508040F2
:101280009040E1F700C000C08EB189838FB189839F
:101290000F90DF91CF91089580E00E94AC0A81E425
:1012A0008A95F1F700C081E00E94AC0A81E48A953A
:1012B000F1F700C082E00E94AC0A81E48A95F1F760
:1012C00000C083E00E94AC0A81E48A95F1F700C077
:1012D00084E00E94AC0A81E48A95F1F700C085E0C1
:1012E0000E94AC0A81E48A95F1F700C080E00E9478
:1012F000B10A81E48A95F1F700C081E00E94B10A49
:1013000081E48A95F1F700C082E00E94B10A81E48D
:101310008A95F1F700C083E00E94B10A81E48A95C2
:10132000F1F700C084E00E94B10A81E48A95F1F7E8
:1013300000C085E00E94B10A81E48A95F1F700C0FF
:1013400008954F925F926F927F928F929F92AF9289
:10135000BF92CF92DF92EF92FF920F931F93CF93A2
:10136000DF93CDB7DEB738010E94E105B701C801B0
:101370000E949D05C8010E94C10AC6010E94EA0A96
:10138000F50180819181892BF1F0F3018481813015
:10139000F9F0A401B501C6010E94790880E090EF40
:1013A0000197F1F7DF91CF911F910F91FF90EF908F
:1013B000DF90CF90BF90AF909F908F907F906F9075
:1013C0005F904F900895B401C7010E949D07DDCF43
:1013D000A601B401C5010E943708DBCF60E08FE0B1
:1013E0000E94F00B8FE00E94D00B1F928F9387EA30
:1013F00092E09F938F930E94080D4FEF60EF8FE074
:101400000E94130C8FE00E94D00B1F928F9389ECE7
:1014100092E09F938F930E94080D8DB79EB7089618
:101420000FB6F8949EBF0FBE8DBF0895CF92DF9286
:10143000EF92FF920F931F93CF93DF93CDB7DEB759
:101440002B970FB6F894DEBF0FBECDBFFC01A4E210
:10145000B3E08C91838311968C91119784831296BB
:101460008C911297858313968C911397868314968B
:101470008C918783CF010E944B0BCE0101960E9475
:101480008A0B81110FC02B960FB6F894DEBF0FBEEA
:10149000CDBFDF91CF911F910F91FF90EF90DF9023
:1014A000CF9008958B811F928F938A818F9389812A
:1014B0008F938AEF92E09F938F930E94080D0F9075
:1014C0000F900F900F900F900F908B81882329F130
:1014D0006E0184E0C80ED11C10E000E00F2EF4E194
:1014E000EF2EF3E0FF2EF02DF60181916F011F9298
:1014F0008F93FF92EF920E94080D89E999E001977E
:10150000F1F700C00F5F1F4F8B810F900F900F906E
:101510000F908017110609F03CF783E291E00E94DA
:101520001E0DB1CFCF93DF93C82FD62F0E943C065C
:1015300085E00E9421068D2F0E9421068C2F0E949B
:1015400021060E9440068FEF9FEB0197F1F700C044
:101550000000DF91CF910895682F81E00E94920AE8
:101560000895682F80E00E94920A0895CF93C0E00A
:101570006C2F80E00E94920ACF5FC630C9F7CF91EE
:1015800008951F93CF93DF93EC010E943C0683E004
:101590000E94210681E48A95F1F700C090E080E086
:1015A0000E94300683E08A95F1F7000090E080E029
:1015B0000E94300683E08A95F1F7000090E080E019
:1015C0000E943006182F0E9440061C83DF91CF91A5
:1015D0001F910895FF920F931F93CF93DF93EC0118
:1015E0000E943C0684E00E94210681E48A95F1F77E
:1015F00000C090E080E00E943006F82E83E08A95DB
:10160000F1F7000090E080E00E943006082F83E0B0
:101610008A95F1F7000090E080E00E943006182FD4
:101620000E944006F88209831A83DF91CF911F91AF
:101630000F91FF9008950E94E30B80E090EF0197D7
:10164000F1F740E860EE8FE00E94130C40E860EE96
:101650008EE00E94130C60E08AE20E94F00B6AEBBD
:1016600089E20E94F00B63E088E20E94F00B40E008
:101670006FEF8CE20E94130C63E08BE20E94F00B90
:1016800040E060EE8FE00E94130C40E060EE8EE0E0
:101690000E94130C08950F931F93CF93DF938C0137
:1016A00080E30E94D00B88708111FECFF801C081C9
:1016B000D181BE0176956795769567957695679504
:1016C00081E30E94F00B6C2F6295660F607E82E3CF
:1016D0000E94F00BF80162816F7085E30E94F00BAD
:1016E000F8018281882371F0C0E0F801EC0FF11D50
:1016F000638186E38C0F0E94F00BCF5FF80182813B
:10170000C81798F381E00E942D0CDF91CF911F91B3
:101710000F9108950F931F93CF938C018CE20E9439
:10172000D00B80FD05C080E0CF911F910F910895EF
:1017300081E60E94D00BC82F82E60E94D00B2C2F8E
:1017400030E0220F331F220F331F220F331F8295E9
:1017500086958770282BF8013183208385E60E94C7
:10176000D00B8930C0F088E0F8018283C0E086E6C3
:101770008C0F0E94D00BF801EC0FF11D8383CF5F1B
:10178000F8018281C81798F340E061E08CE20E9482
:10179000130C81E0C9CFF80182838111E7CFF4CF28
:1017A000CF93C82F0E94440683E00E9421068C2F0D
:1017B0000E94210680E00E942806C82F0E94400651
:1017C0008C2FCF9108950E94440680EC0E94210640
:1017D0000E94400608950E9440060E94E30B08956F
:1017E000CF93DF93D82FC62F0E94440682E00E9439
:1017F00021068D2F0E9421068C2F0E9421060E9417
:101800004006DF91CF910895CF930E94440680EA6D
:101810000E94210680E00E942806C82F0E944006F0
:101820008C2FCF9108951F93CF93DF93182FD62F2E
:10183000C42F0E94440685E00E942106812F0E9449
:1018400021068D2F0E9421068C2F0E9421060E94C6
:101850004006DF91CF911F910895CF93C82F0E942A
:1018600044068C2F80680E9421060E944006CF917A
:10187000089597FB072E16F4009407D077FD09D042
:101880000E944D0C07FC05D03EF4909581959F4F2A
:101890000895709561957F4F0895AA1BBB1B51E178
:1018A00007C0AA1FBB1FA617B70710F0A61BB70BD0
:1018B000881F991F5A95A9F780959095BC01CD0175
:1018C00008958F929F92AF92BF92CF92DF92EF9244
:1018D000FF92CF93DF93EC01688179818A819B81AC
:1018E000611571058105910521F464E279ED8BE5BF
:1018F00097E02DE133EF41E050E00E940F114901E4
:101900005A019B01AC01A7EAB1E40E942E116B01C0
:101910007C01ACEEB4EFA50194010E943C11DC0106
:10192000CB018C0D9D1DAE1DBF1DB7FF03C00197E0
:10193000A109B04888839983AA83BB839F77DF91ED
:10194000CF91FF90EF90DF90CF90BF90AF909F909E
:101950008F9008950E94610C089584E091E00E94A8
:10196000610C0895B0E0A0E080930401909305011C
:10197000A0930601B093070108950F931F93CF938F
:10198000DF93009759F46115710541F4F0E0E0E050
:10199000CF01DF91CF911F910F9108958B01EC0141
:1019A0006EE070E081E090E00E94230FFC01892B43
:1019B00069F380E883830115110571F013870287AD
:1019C00081E8838380912C0390912D03892B21F44E
:1019D000F0932D03E0932C032097D1F2D187C08799
:1019E00083818260838380912E0390912F03892BC2
:1019F00079F6F0932F03E0932E03809130039091BA
:101A00003103892B29F6F0933103E0933003C0CFE3
:101A1000B0E0A0E0EEE0FDE00C945111AE014B5FB0
:101A20005F4FFA0161917191AF0180912E03909106
:101A30002F030E94490DE2E00C946D110F931F9348
:101A4000CF93DF93E0912E03F0912F032381EC01DC
:101A500010E000E021FD08C00FEF1FEF14C0099552
:101A6000892B11F00FEF1FEF899160912E03709178
:101A70002F03DB011896ED91FC918111F0CF8AE0E4
:101A80000995892B49F7C801DF91CF911F910F91DB
:101A90000895ABE0B0E0EFE4FDE00C9441117C016F
:101AA0003B018A01FC0117821682838181FFC8C134
:101AB000CE0101965C01F7019381F30193FD8591BD
:101AC00093FF81913F01882309F453C1853239F492
:101AD00093FD859193FF81913F01853229F4B701F0
:101AE00090E00E948110E7CF912C212C312CFFE156
:101AF000F31538F08B3211F190F4803209F1833212
:101B000029F137FC3CC020ED280F2A3050F536FE75
:101B100020C08AE0989E200D1124922E06C08D329E
:101B200091F0803371F7689430F8F30193FD85915B
:101B300093FF81913F018111DACF21C0689431F880
:101B4000689432F8F2CF689433F8EFCF689434F8A1
:101B5000ECCFEAE02E9E200D1124222E689435F859
:101B6000E4CF8E3229F436FC04C1689436F8DDCF18
:101B70008C3619F4689437F8D8CF8836B1F2982F9C
:101B80009F7D95549330E0F08336A1F18337C1F106
:101B9000833509F063C02801F2E04F0E511CF801B3
:101BA000C080D180692D70E036FC02C06FEF7FEFFE
:101BB000C6010E9464104C01689437F882010AC083
:101BC0000C5F1F4FFFE3F98388248394912C6501F8
:101BD000E89437F833FE2DC0522C8114910471F52E
:101BE000552009F468CFB70180E290E00E9481108F
:101BF0005A94F6CFF801808189830E5F1F4FE4CF9E
:101C00002801F2E04F0E511CF801C080D180692DEF
:101C100070E036FC02C06FEF7FEFC6010E947610C5
:101C20004C018201D5CFB70180E290E00E94811083
:101C30002A942814190409F0B0F7CECFF60137FC26
:101C4000859137FE81916F01B70190E00E9481106C
:101C500051105A94F1E08F1A9108BFCF843619F0D1
:101C6000893609F077C0F80137FE6BC06081718159
:101C7000828193810C5F1F4FF32DFF763F2E97FFDC
:101C800009C090958095709561957F4F8F4F9F4FBC
:101C9000689437F82AE030E0A5010E94B110C82E00
:101CA000CA188C2C432C36FE0CC0E89440F8C9149A
:101CB00040F434FE05C032FC03C0F32DFE7E4F2EEF
:101CC000892C44FE95C0FE01EC0DF11D808180330E
:101CD00009F087C0242D297E422E842D8870582E2D
:101CE00043FC95C040FE8FC09C2C821418F42C0C31
:101CF000922C981844FE91C0B70180E390E00E94B6
:101D0000811042FE09C088E790E041FE02C088E5EC
:101D100090E0B7010E948110C91408F48AC0CA94E7
:101D2000D12C9FEFC91AD90ACA0CDB1CF60182918B
:101D30006F01B70190E00E948110AC14BD04B1F7AF
:101D40004FCF60817181072E000C880B990B0E5FBD
:101D50001F4F92CFD32CE894D4F82AE030E0853797
:101D600039F1232D297FD22E8F3601F148F48835A1
:101D7000A9F0F701868197812B96E2E10C945D1121
:101D8000803749F08837A9F7D4FE02C06894D2F8AA
:101D900020E130E00DC06894D4F8F6CF34FE03C0E3
:101DA000822F8660D82E20E132E002C028E030E0A9
:101DB000F801D7FE0FC060817181828193810C5F31
:101DC0001F4FA5010E94B110C82ECA183D2CE894DF
:101DD00037F867CF6081718190E080E00E5F1F4F20
:101DE000F0CF42FC02C0839478CF8394839475CF64
:101DF000842D867809F471CFF6CFB70180E290E0A8
:101E00000E94811083948214C0F3512C73CF522C02
:101E10005818821408F46ECFF8CF842D867809F410
:101E20007BCF8BE241FE80E247FC8DE2B70190E080
:101E300071CFB70180E390E00E9481109A946CCF3B
:101E40008FEF9FEF99CF0F931F93CF93DF93869FD1
:101E50008001879F100D969F100D1124C8010E94CC
:101E60003F0FEC01009729F0A80170E060E00E94AC
:101E70006F10CE01DF91CF911F910F9108950F93B5
:101E80001F93CF93DF938230910510F482E090E0AE
:101E9000E0913403F091350330E020E0B0E0A0E0C1
:101EA000309799F42115310509F44AC0281B390BE4
:101EB00024303105D8F58A819B816115710589F13E
:101EC000FB0193838283FE0111C040815181028115
:101ED000138148175907E0F04817590799F41097EC
:101EE00061F012960C93129713961C933296CF01C1
:101EF000DF91CF911F910F910895009334031093B8
:101F00003503F4CF2115310551F04217530738F04E
:101F1000A901DB019A01BD01DF01F801C1CFEF0189
:101F2000F9CF9093350380933403CDCFFE01E20FB8
:101F3000F31F819391932250310939832883D7CF9E
:101F40002091320330913303232B41F420910A0175
:101F500030910B0130933303209332032091080119
:101F6000309109012115310541F42DB73EB740915B
:101F70000C0150910D01241B350BE0913203F091BF
:101F80003303E217F307A0F42E1B3F0B2817390782
:101F900078F0AC014E5F5F4F2417350748F04E0FC5
:101FA0005F1F5093330340933203819391939FCFEC
:101FB000F0E0E0E09CCFCF93DF930097E9F0FC01E5
:101FC000329713821282A0913403B0913503ED0150
:101FD00030E020E01097A1F420813181820F931F1F
:101FE00020913203309133032817390709F061C07B
:101FF000F0933303E0933203DF91CF910895EA0128
:10200000CE17DF07E8F54A815B819E014115510536
:10201000B1F7E901FB83EA8349915991C40FD51FB8
:10202000EC17FD0761F4808191810296840F951F62
:10203000E90199838883828193819B838A83F0E07D
:10204000E0E012968D919C9113970097B9F52D9130
:102050003C911197CD010296820F931F209132037C
:10206000309133032817390739F6309751F510921C
:10207000350310923403B0933303A0933203BCCFE3
:10208000D383C28340815181840F951FC817D9071C
:1020900061F44E5F5F4F88819981480F591F5183CA
:1020A00040838A819B81938382832115310509F0C6
:1020B000B0CFF0933503E09334039ECFFD01DC01F4
:1020C000C0CF13821282D7CFFC01059061507040BF
:1020D0000110D8F7809590958E0F9F1F0895DC0111
:1020E00001C06D9341505040E0F70895FC016150EC
:1020F000704001900110D8F7809590958E0F9F1F2A
:1021000008950F931F93CF93DF93182F092FEB019F
:102110008B8181FD09C01FEF0FEF812F902FDF9181
:10212000CF911F910F91089582FF14C02E813F819E
:102130008C819D81281739073CF4E881F981CF0112
:1021400001969983888310838E819F8101969F8356
:102150008E83E3CFE885F985812F0995892BA1F33B
:10216000DACFFA01AA27283051F1203181F1E89421
:102170006F936E7F6E5F7F4F8F4F9F4FAF4FB1E07A
:102180003ED0B4E03CD0670F781F891F9A1FA11D75
:10219000680F791F8A1F911DA11D6A0F711D811D76
:1021A000911DA11D20D009F468943F912AE0269F3B
:1021B00011243019305D3193DEF6CF010895462F9A
:1021C0004770405D4193B3E00FD0C9F7F6CF462F7B
:1021D0004F70405D4A3318F0495D31FD40524193E4
:1021E00002D0A9F7EACFB4E0A695979587957795A1
:1021F0006795BA95C9F700976105710508959B0128
:10220000AC010A2E06945795479537952795BA95B0
:10221000C9F7620F731F841F951FA01D0895052E17
:1022200097FB1EF400940E94261157FD07D00E94D0
:10223000781107FC03D04EF40C942611509540956C
:10224000309521953F4F4F4F5F4F08959095809562
:10225000709561957F4F8F4F9F4F08950E949A11FF
:10226000A59F900DB49F900DA49F800D911D1124EA
:102270000895B7FF0C942E110E942E11821B930B10
:1022800008952F923F924F925F926F927F928F921A
:102290009F92AF92BF92CF92DF92EF92FF920F93F5
:1022A0001F93CF93DF93CDB7DEB7CA1BDB0B0FB6FF
:1022B000F894DEBF0FBECDBF09942A8839884888BC
:1022C0005F846E847D848C849B84AA84B984C88452
:1022D000DF80EE80FD800C811B81AA81B981CE0F49
:1022E000D11D0FB6F894DEBF0FBECDBFED0108952E
:1022F000A1E21A2EAA1BBB1BFD010DC0AA1FBB1F0A
:10230000EE1FFF1FA217B307E407F50720F0A21B7B
:10231000B30BE40BF50B661F771F881F991F1A94E8
:1023200069F760957095809590959B01AC01BD0112
:10233000CF010895A29FB001B39FC001A39F700D6C
:10234000811D1124911DB29F700D811D1124911DBD
:062350000895F894FFCF90
:10235600040000140100000000003603200053743E
:10236600617274696E67205352414D2074657374AF
:102376002E2E2E0D00577269746520706861736584
:10238600206572726F723A206578745F72616D5B58
:102396002534645D203D2025303258202873686F2F
:1023A600756C642062652025303258290D0A00526A
:1023B600657472696576616C207068617365206505
:1023C60072726F723A206578745F72616D5B253444
:1023D600645D203D2025303258202873686F756C67
:1023E600642062652025303258290D0A0053524177
:1023F6004D207465737420636F6D706C65746564CD
:102406002077697468200D0A253464206572726F1E
:10241600727320696E2077726974652070686173C3
:102426006520616E64200D0A253464206572726F22
:10243600727320696E2072657472696576616C20AC
:1024460070686173650D0A0D0A006C65667400722A
:102456006967687400757000646F776E006E6575E5
:102466007472616C00756E6B6E6F776E006A6F7951
:10247600737469636B20783A2025640D0A006A6FCD
:1024860079737469636B20793A2025640D0A0074A8
:102496006F75636870616420783A2025640D0A00C0
:1024A600746F75636870616420793A2025640D0A3B
:1024B60000646972656374696F6E206A6F797374FC
:1024C60069636B202573200D0A004D454E5500505B
:1024D6004C4159200053434F5245424F415244000C
:1024E6004C65747320676F2100312E00322E003345
:1024F6002E005465737400646174612073656E64A4
:1025060074206F6720666174742074696C62616BF5
:10251600653A202564200D0A0064617461207365A4
:102526006E6474206F672066617474206F67206D17
:102536006F6469666973657272742074696C62612E
:102546006B653A202564200D0A0052582069643DC7
:10255600307825303358206C656E3D2564206461E3
:0A25660074613A0020253032640051
:00000001FF
