:100000000C9460030C947D030C947D030C94700895
:100010000C947D030C947D030C947D030C947D0360
:100020000C947D030C947D030C947D030C947D0350
:100030000C947D030C947D030C947D030C947D0340
:100040000C947D030C947D030C947D030C947D0330
:100050000C947D030C947D030C947D030C947D0320
:100060000C947D030C947D030C947D030C947D0310
:1000700000000000005C00000C000C007C287C28C4
:1000800058DC68002410480028542840000C000068
:10009000007884008478000054385400107C1000EC
:1000A00080400000101010000040000060100C00A4
:1000B00038543800487C40004864580044542C00B0
:1000C0001C107C005C5424003854240064140C0080
:1000D00068542C0048543800004800008048000054
:1000E0001028440028282800442810000454080040
:1000F00038445C00781478007C5428003844280088
:100100007C4438007C5444007C140400384474005F
:100110007C107C00447C440020403C007C106C003F
:100120007C4040007C187C0078103C00384438004B
:100130007C1408003844B8007C146800485424003B
:10014000047C04007C407C003C603C007C307C00F3
:100150006C106C000C700C0064544C00007C44006B
:100160000C106000447C00000804080080808000BF
:1001700000040800304878007C48300030484800CF
:1001800030487C00306850001078140090A8780047
:100190007C08700050744000808074007C106800FF
:1001A000447C4000781078007808700030483000B7
:1001B000F82810003048F80078100800505828003F
:1001C000083C4800384078003840380078207800F3
:1001D0004830480098A0780048685800107884009B
:1001E000007C00008478100008040804000000006F
:1001F0000000005F00000007000700147F147F1458
:10020000242A7F2A1223130864623649552250009B
:1002100005030000001C2241000041221C00082AA6
:100220001C2A0808083E080800503000000808088A
:100230000808006060000020100804023E51494593
:100240003E00427F400042615149462141454B31C9
:100250001814127F1027454545393C4A4949300159
:10026000710905033649494936064949291E0036B0
:100270003600000056360000000814224114141401
:10028000141441221408000201510906324979412F
:100290003E7E1111117E7F494949363E414141223E
:1002A0007F4141221C7F494949417F090901013EA3
:1002B000414151327F0808087F00417F41002040C2
:1002C000413F017F081422417F404040407F0204AB
:1002D000027F7F0408107F3E4141413E7F090909AA
:1002E000063E4151215E7F09192946464949493157
:1002F00001017F01013F4040403F1F2040201F7F00
:100300002018207F631408146303047804036151E8
:1003100049454300007F4141020408102041417FCC
:100320000000040201020440404040400001020479
:100330000020545454787F4844443838444444207E
:10034000384444487F3854545418087E0901020840
:100350001454543C7F0804047800447D400020403D
:10036000443D00007F10284400417F40007C041879
:1003700004787C0804047838444444387C14141409
:1003800008081414187C7C080404084854545420A9
:10039000043F4440203C4040207C1C2040201C3C2A
:1003A0004030403C44281028440C5050503C446499
:1003B000544C44000836410000007F0000004136E4
:1003C000080002010302010000000000000000001C
:1003D000065F5F0600000000070700070700001423
:1003E0007F7F147F7F1400242E6B6B3A120000462F
:1003F0006630180C666200307A4F5D377A48000428
:1004000007030000000000001C3E634100000000E4
:1004100041633E1C000000082A3E1C1C3E2A0808BE
:10042000083E3E0808000000A0E060000000000850
:100430000808080808000000006060000000006074
:1004400030180C060301003E7F594D7F3E000042EC
:10045000427F7F40400000627359496F660000226E
:100460006349497F360000181C16137F7F10002750
:100470006745457D3900003C7E4B497930000003DB
:100480006371190F070000367F49497F3600000667
:100490004F49693F1E000000006C6C000000000026
:1004A000A0EC6C00000000081C3663410000001442
:1004B00014141414140000004163361C08000002D8
:1004C0000351590F0600003E7F415D5D1F1E007CF9
:1004D0007E13137E7C0000417F7F49497F36001CDC
:1004E0003E634141632200417F7F41637F1C0041A5
:1004F0007F7F495D416300417F7F491D0103001CEF
:100500003E6341517372007F7F08087F7F000000C7
:10051000417F7F41000000307040417F3F0100413A
:100520007F7F081C776300417F7F41406070007FC0
:100530007F060C067F7F007F7F060C187F7F001CE4
:100540003E6341633E1C00417F7F49090F06001E48
:100550003F21717F5E0000417F7F19396F46002681
:10056000674D597B32000003417F7F410300007FCC
:100570007F40407F7F00001F3F60603F1F00007F83
:100580007F3018307F7F0063771C081C776300077B
:100590004F78784F0700006773594D47637100002B
:1005A0007F7F41410000000103060C18306000000D
:1005B00041417F7F000000080C0603060C08008004
:1005C000808080808080800000030704000000207D
:1005D0007454543C784000413F7F44447C38003898
:1005E0007C44446C280000307848493F7F40003804
:1005F0007C54545C180000487E7F49030200009838
:10060000BCA4A4F87C0400417F7F08047C7800002F
:10061000447D7D4000000040C484FD7D0000004119
:100620007F7F10386C440000417F7F400000007CD9
:100630007C0C180C7C78007C7C04047C78000038EE
:100640007C44447C38000084FCF8A4243C18001846
:100650003C24A4F8FC8400447C78441C1800004826
:100660005C54547424000000043E7F442400003C89
:100670007C40403C7C40001C3C60603C1C00003CDA
:100680007C6030607C3C00446C3810386C44009CCA
:10069000BCA0A0FC7C00004C64745C4C64000008AE
:1006A000083E7741410000000000777700000041DC
:1006B00041773E0808000002030103020301000025
:1006C00011241FBECFEFD4E0DEBFCDBF13E0A0E00A
:1006D000B1E0EEE4F2E202C005900D92AC30B10759
:1006E000D9F723E0ACE0B3E001C01D92A832B20715
:1006F000E1F70E947F030C9425110C940000CF9326
:10070000DF93CDB7DEB72B970FB6F894DEBF0FBEE1
:10071000CDBF8FE190E00E94F8030E9405040E9483
:100720009D040E9466080E94E4050E941F0A0E9420
:100730006B060E9457070E94670B0E94840AFE0105
:10074000339689E0DF011D928A95E9F783E291E013
:100750009A83898385E08B830E94A704809110038C
:100760008111109210030F2EFEE08F2EF3E09F2ECA
:10077000F02D0F2EFCE0AF2EF3E0BF2EF02D0F2E4C
:10078000FBE1CF2EF3E0DF2EF02D0F2EF0E0EF2E69
:10079000F1E0FF2EF02D06E113E022E133E043E12A
:1007A00053E064E173E085E193E00E947709F8018A
:1007B00080818C8381818D8382818E8383818F83ED
:1007C00084818887CE0101960E94B40ABFEF2FE78B
:1007D00087E0B15020408040E1F700C00000C3CF67
:1007E0005D9BFECF8CB908955F9BFECF8CB10895C1
:1007F00090BD89B988E18AB98EE880BD64EF73E065
:1008000080EF93E00E94390C089585B7806885BF1A
:1008100080B7806280BF0895FB01F85E80830895F1
:10082000985EFC0180810895CF92DF92EF92FF9253
:100830000F931F93CF93DF938EE091E00E949A0C69
:100840000E94290C6C010E942E0CD0E0C0E010E048
:1008500000E00F2EF5E2EF2EF1E0FF2EF02D05C0A7
:100860002196C11598E0D907F1F00E94290CFE01EC
:10087000F85E80832081281799F399279F938F939F
:100880001F922F93DF93CF93FF92EF920E94840CDD
:100890000F5F1F4F8DB79EB708960FB6F8949EBF97
:1008A0000FBE8DBFDDCFC6010E942E0CD0E0C0E090
:1008B000F12CE12C0F2EFFE5CF2EF1E0DF2EF02DF5
:1008C00005C02196C11598E0D907F1F00E94290CC6
:1008D000FE01F85E20812817A1F399279F938F933B
:1008E0001F922F93DF93CF93DF92CF920E94840CBD
:1008F0008FEFE81AF80A8DB79EB708960FB6F894EE
:100900009EBF0FBE8DBFDDCFFF92EF921F930F935F
:100910008DE991E09F938F930E94840C0F900F902C
:100920000F900F900F900F90DF91CF911F910F912B
:10093000FF90EF90DF90CF9008958D9A83E48FBD64
:1009400089E18EBD82E090E09BBD8ABD0895E09173
:100950000201F091030110820895E0910201F091EB
:100960000301E081DC01EC93E0910201F0910301CD
:100970008081FB018083E0910201F091030180817D
:10098000DA018C93E0910201F09103018081F90179
:1009900080830895CF92DF92EF92FF920F931F937F
:1009A000CF93DF936B017A01E901F801DC016C91CF
:1009B0006C53770B34E6369FC001379F900D11249E
:1009C00004E610E0B8010E94B50B6083D6016C917B
:1009D0006C53770B369FC001379F900D1124B801DF
:1009E0000E94B50B6183D7014C914058550B349F41
:1009F000C001359F900D11249923F4F0880F892FA1
:100A0000881F990B828328812058330B44E6429F2C
:100A1000C001439F900D112499238CF0880F892FDA
:100A2000881F990B8383DF91CF911F910F91FF90C6
:100A3000EF90DF90CF90089581589F4FDFCF81587E
:100A40009F4FECCFFC0190818181891780F08181DB
:100A50008181893230F082E090E0FB0191838083D4
:100A6000089584E090E0FB01918380830895808164
:100A70008081893230F484E090E0FB0191838083AF
:100A8000089581E090E0FB01918380830895823096
:100A9000910581F038F40097B1F0019789F48FEF58
:100AA00091E008958330910541F0049749F48DE079
:100AB00092E0089585E092E0089588E092E008953C
:100AC00085E192E008958AEF91E008950F931F93D6
:100AD000CF93DF93EC018B0188811F928F938DE17F
:100AE00092E09F938F930E94840C89811F928F9331
:100AF0008EE292E09F938F930E94840C8A811F92D2
:100B00008F938FE392E09F938F930E94840C8B814D
:100B10001F928F9380E592E09F938F930E94840CA5
:100B2000F801808191810E9447059F938F9381E610
:100B300092E09F938F930E94840C8DB79EB744964A
:100B40000FB6F8949EBF0FBE8DBFDF91CF911F915E
:100B50000F9108956F927F928F929F92AF92BF9262
:100B6000CF92DF92EF92FF920F931F93CF93DF9379
:100B7000EC016B015A01490138010E94A7048091E0
:100B800010038111109210039401A501B601CE014A
:100B90000E94AD0483019401A501B601CE010E941B
:100BA000CA04B701C3010E942205DF91CF911F91B2
:100BB0000F91FF90EF90DF90CF90BF90AF909F90FC
:100BC0008F907F906F90089587B3806A87BBBC9A9F
:100BD000C49A81E58DB98B9A8C9AB89A949A939A13
:100BE000C09A089580E287BB80E48DB908958FB9DB
:100BF000779903C08FB1779BFDCF08958FB977990F
:100C000003C08FB1779BFDCF8FB1089580E00E9424
:100C1000FE050895779BFECF8FB108959398949A1F
:100C2000C09A08959498939AC09A0895939A949A22
:100C3000C09A0895C098939A949A08953A98329ACF
:100C400008953A9A329A0895CF93C82F0E942106A8
:100C50000E940E068C2F0E94F7050E941606CF9167
:100C60000895CF93C82F0E941E060E940E068C2F57
:100C70000E94F7050E941606CF9108958770806B39
:100C80000E9431060895CF93C82F8F700E943106BD
:100C90008C2F82958F7080610E943106CF910895CC
:100CA000CF93DF930E943E0680E00E944306C0E897
:100CB000D0E080E00E9424062197D9F7DF91CF9100
:100CC0000895CF93C0E08C2F0E945006CF5FC830AC
:100CD000D1F7CF9108958EEA0E94310680E20E94FA
:100CE000310682E00E94310681EA0E94310688ECDA
:100CF0000E94310683ED0E94310680E00E94310699
:100D000080E40E9431068FEA0E9431060E9461064B
:100D10000895CF93DF93D82FC0E08C2F0E943E061A
:100D20008D2F0E94430680E00E942406CF5FC038CA
:100D3000A1F7DF91CF910895CF93C62F0E943E0671
:100D40008C2F0E944306CF9108950E949C0688E153
:100D50000E9424068CE30E9424068EE70E9424064B
:100D600088E10E94240688E10E94240608950F93DA
:100D70001F93CF93DF93962FD22FC0EEC80FCF359E
:100D800080F4642F892F0E949C06D53011F1D83051
:100D900051F0D43009F43AC0DF91CF911F910F91F7
:100DA0000895C0E0EECFD0E0CC0FDD1FCC0FDD1FEB
:100DB000CC0FDD1F8E0109531C4FC153DC4FF801CE
:100DC00084910E9424060F5F1F4F0C171D07B9F76F
:100DD000E3CF8CE30E94240688E10E942406D0E041
:100DE000CE01880F991F880F991FC80FD91F8E0138
:100DF00004511E4FCF50DE4FF80184910E9424060B
:100E00000F5F1F4F0C171D07B9F7C6CFD0E0CC0FEF
:100E1000DD1FCC0FDD1F8E0100591F4FCC58DF4F57
:100E2000F80184910E9424060F5F1F4F0C171D07C5
:100E3000B9F7B2CFEF92FF920F931F93CF93DF9347
:100E40007C01D62FC42F022FFC018081882311F151
:100E500010E00EC0202F40E06D2F0E94B706C0E0CA
:100E60001F5FC85FF701E10FF11D8081882391F0BA
:100E70002C2F30E0285F3F4F213831052CF0DF5F09
:100E8000D83041F7D0E0E6CF202F4C2F6D2F0E94B5
:100E9000B706E6CFDF91CF911F910F91FF90EF90B2
:100EA000089580528F3508F4089580E0FDCF0E94A8
:100EB000610628E042E360E08AE792E00E941A07B8
:100EC00024E040E062E08FE792E00E941A0724E00D
:100ED00040E064E085E892E00E941A0768E282E060
:100EE0000E94A5060895CF93DF93EB01FC0180815A
:100EF000918182309105C9F00397D9F48881998155
:100F0000892BB9F482E00E94500624E040E062E0C0
:100F10008FE792E00E941A0768E584E00E94A50628
:100F200081E090E09983888304C08881998101974A
:100F300019F0DF91CF91089584E00E94500624E0DB
:100F400040E064E085E892E00E941A0768E282E0EF
:100F50000E94A50619821882ECCF82E00E94150A31
:100F600083E00E94150A8FEF9FEB0197F1F700C015
:100F7000000082E00E941A0A83E00E941A0A8FEFA2
:100F80009FEB0197F1F700C0000081E00E94150A75
:100F900084E00E94150A8FEF9FEB0197F1F700C0E4
:100FA000000081E00E941A0A84E00E941A0A8FEF72
:100FB0009FEB0197F1F700C0000080E00E94150A46
:100FC00085E00E94150A8FEF9FEB0197F1F700C0B3
:100FD000000080E00E941A0A85E00E941A0A089523
:100FE000C0E08C2F0E94150A89E999E00197F1F77A
:100FF00000C0CF5FC730A9F78FEF9FEB0197F1F7E4
:1010000000C00000C6E08C2F0E941A0A89E999E00E
:101010000197F1F700C0C150F6CFCF93DF93EC01F9
:10102000FB0180819181009729F0019799F0DF9170
:10103000CF9108950E94610628E04EE163E080E9C7
:1010400092E00E941A070E94AD0781E090E0998328
:101050008883EDCF0E94610628E044E160E085E8E6
:1010600092E00E941A0724E040E062E089E992E001
:101070000E941A0724E040E064E08CE992E00E94BC
:101080001A0724E040E066E08FE992E00E941A0728
:101090000E94AD0782E090E099838883C8CF0F93C8
:1010A0001F93CF93DF93FC01818186FD05C0DF9103
:1010B000CF911F910F910895EA018B010E9457076C
:1010C000F8011182108219821882F1CFF8943298B7
:1010D00085B7836085BF8BB780628BBF7894089596
:1010E0001F920F920FB60F9211242F933F934F939D
:1010F0005F936F937F938F939F93AF93BF93EF9380
:10110000FF9381E08093100322E133E043E153E059
:1011100064E173E085E193E00E94AD04FF91EF91FB
:10112000BF91AF919F918F917F916F915F914F91FF
:101130003F912F910F900FBE0F901F90189585E54E
:1011400090E0A0E0B0E08093C02A9093C12AA093E1
:10115000C22AB093C32A2FEF8FE796E12150804037
:101160009040E1F700C000C082B394E0892782BBC1
:101170000E94F40399270E94F00382EA92E09F9371
:101180008F930E94840C0F900F9008958A9A319A41
:101190008AB38FEF8ABB399885E58BBB399A39982A
:1011A0008AEA8BBB08950E94140408956F927F927F
:1011B0008F929F92AF92BF92CF92DF92EF92FF9267
:1011C0000F931F93CF93DF93EC016B015A014901F9
:1011D0000E94AD049401A501B601CE010E94CA048B
:1011E000B701C8010E942205B701C8010E94660527
:1011F000DF91CF911F910F91FF90EF90DF90CF90F3
:10120000BF90AF909F908F907F906F900895CF93F5
:10121000DF931F92CDB7DEB70E940E068AEA0E94C6
:10122000F7052FEF8FEF92E0215080409040E1F7DB
:1012300000C000C08EB189838FB189830F90DF9188
:10124000CF91089580E00E94150A81E48A95F1F714
:1012500000C081E00E94150A81E48A95F1F700C080
:1012600082E00E94150A81E48A95F1F700C083E0CC
:101270000E94150A81E48A95F1F700C084E00E947B
:10128000150A81E48A95F1F700C085E00E94150AED
:1012900081E48A95F1F700C080E00E941A0A81E497
:1012A0008A95F1F700C081E00E941A0A81E48A95CC
:1012B000F1F700C082E00E941A0A81E48A95F1F7F2
:1012C00000C083E00E941A0A81E48A95F1F700C009
:1012D00084E00E941A0A81E48A95F1F700C085E053
:1012E0000E941A0A81E48A95F1F700C008954F928E
:1012F0005F926F927F928F929F92AF92BF92CF92A6
:10130000DF92EF92FF920F931F93CF93DF93CDB7AE
:10131000DEB738010E94AA05B701C8010E94660520
:10132000F501808191819F938F9387EA92E09F934B
:101330008F930E94840CC8010E942A0AC6010E9451
:10134000530AF501808191810F900F900F900F90BB
:10135000892BF1F0F30184818130F9F0A401B5010A
:10136000C6010E944F0880E090EF0197F1F7DF91EE
:10137000CF911F910F91FF90EF90DF90CF90BF9092
:10138000AF909F908F907F906F905F904F90089557
:10139000B401C7010E947307DDCFA601B401C501E6
:1013A0000E940D08DBCF60E08FE00E946C0B8FE0A5
:1013B0000E944C0B1F928F9389EB92E09F938F9327
:1013C0000E94840C4FEF60EF8FE00E948F0B8FE044
:1013D0000E944C0B1F928F938BED92E09F938F9303
:1013E0000E94840C8DB79EB708960FB6F8949EBFE6
:1013F0000FBE8DBF0895CF93DF93C82FD62F0E94C5
:10140000120685E00E94F7058D2F0E94F7058C2FAC
:101410000E94F7050E9416068FEF9FEB0197F1F7E8
:1014200000C00000DF91CF910895682F81E00E94F5
:10143000FB090895682F80E00E94FB090895CF936F
:10144000C0E06C2F80E00E94FB09CF5FC630C9F777
:10145000CF9108951F93CF93DF93EC010E94120662
:1014600083E00E94F70581E48A95F1F700C090E0DF
:1014700080E00E94060683E08A95F1F7000090E084
:1014800080E00E94060683E08A95F1F7000090E074
:1014900080E00E940606182F0E9416061C83DF912A
:1014A000CF911F910895FF920F931F93CF93DF93D6
:1014B000EC010E94120684E00E94F70581E48A95FF
:1014C000F1F700C090E080E00E940606F82E83E06D
:1014D0008A95F1F7000090E080E00E940606082F50
:1014E00083E08A95F1F7000090E080E00E94060614
:1014F000182F0E941606F88209831A83DF91CF9174
:101500001F910F91FF9008950E945F0B80E090EF74
:101510000197F1F740E860EE8FE00E948F0B40E802
:1015200060EE8EE00E948F0B60E08AE20E946C0BFE
:101530006AEB89E20E946C0B63E088E20E946C0B0C
:1015400040E06FEF8CE20E948F0B63E08BE20E9421
:101550006C0B40E060EE8FE00E948F0B40E060EE8D
:101560008EE00E948F0B08950F931F93CF93DF930C
:101570008C0180E30E944C0B88708111FECFF80132
:10158000C081D181BE0176956795769567957695F0
:10159000679581E30E946C0B6C2F6295660F607EED
:1015A00082E30E946C0BF80162816F7085E30E94F8
:1015B0006C0BF80182811816B4F4C0E090E080E072
:1015C000800F911FFC01638186E38C0F0E946C0BDE
:1015D000CF5F8C2F90E0F8012281022E000C330B9C
:1015E000821793076CF381E00E94A90BDF91CF91E2
:1015F0001F910F910895EF92FF921F93CF93DF9366
:101600007C018CE20E944C0B80FD07C080E0DF91E2
:10161000CF911F91FF90EF90089581E60E944C0BAF
:10162000C82F82E60E944C0B2C2F30E0220F331F74
:10163000220F331F220F331F829586958770282B28
:10164000F7013183208385E60E944C0B8930F8F046
:1016500088E0F701828310E0D0E0C0E086E6810FE9
:101660000E944C0BCE0DDF1D8B831F5FC12FD0E07E
:10167000F7018281082E000C990BC817D90774F363
:1016800040E061E08CE20E948F0B81E0C0CFF70167
:101690008283181604F3F4CFCF93C82F0E941A0642
:1016A00083E00E94F7058C2F0E94F70580E00E94DE
:1016B000FE05C82F0E9416068C2FCF9108950E9418
:1016C0001A0680EC0E94F7050E94160608950E94F3
:1016D00016060E945F0B0895CF93DF93D82FC62F75
:1016E0000E941A0682E00E94F7058D2F0E94F705DE
:1016F0008C2F0E94F7050E941606DF91CF91089566
:10170000CF930E941A0680EA0E94F70580E00E94AB
:10171000FE05C82F0E9416068C2FCF9108951F93A7
:10172000CF93DF93182FD62FC42F0E941A0685E07F
:101730000E94F705812F0E94F7058D2F0E94F70563
:101740008C2F0E94F7050E941606DF91CF911F9102
:101750000895CF93C82F0E941A068C2F80680E948C
:10176000F7050E941606CF91089597FB072E16F4F1
:10177000009407D077FD09D00E94C90B07FC05D063
:101780003EF4909581959F4F0895709561957F4F98
:101790000895AA1BBB1B51E107C0AA1FBB1FA617B8
:1017A000B70710F0A61BB70B881F991F5A95A9F70A
:1017B00080959095BC01CD0108958F929F92AF9234
:1017C000BF92CF92DF92EF92FF92CF93DF93EC0123
:1017D000688179818A819B816115710581059105F7
:1017E00021F464E279ED8BE597E02DE133EF41E000
:1017F00050E00E948B1049015A019B01AC01A7EAFD
:10180000B1E40E94AA106B017C01ACEEB4EFA5011B
:1018100094010E94B810DC01CB018C0D9D1DAE1D02
:10182000BF1DB7FF03C00197A109B0488883998302
:10183000AA83BB839F77DF91CF91FF90EF90DF90DA
:10184000CF90BF90AF909F908F9008950E94DD0B36
:10185000089584E091E00E94DD0B0895B0E0A0E0DF
:101860008093040190930501A0930601B0930701B2
:1018700008950F931F93CF93DF93009759F4611549
:10188000710541F4F0E0E0E0CF01DF91CF911F91CD
:101890000F9108958B01EC016EE070E081E090E023
:1018A0000E949F0EFC01892B69F380E88383011558
:1018B000110571F01387028781E8838380911E03ED
:1018C00090911F03892B21F4F0931F03E0931E03D3
:1018D0002097D1F2D187C0878381826083838091F2
:1018E000200390912103892B79F6F0932103E09353
:1018F00020038091220390912303892B29F6F093F2
:101900002303E0932203C0CFB0E0A0E0EAE8FCE0CC
:101910000C94CD10AE014B5F5F4FFA016191719154
:10192000AF0180912003909121030E94C50CE2E059
:101930000C94E9100F931F93CF93DF93E091200352
:10194000F09121032381EC0110E000E021FD08C0AB
:101950000FEF1FEF14C00995892B11F00FEF1FEF48
:1019600089916091200370912103DB011896ED911C
:10197000FC918111F0CF8AE00995892B49F7C801C4
:10198000DF91CF911F910F910895ABE0B0E0EBECA8
:10199000FCE00C94BD107C013B018A01FC01178224
:1019A0001682838181FFC8C1CE0101965C01F701D7
:1019B0009381F30193FD859193FF81913F018823EA
:1019C00009F453C1853239F493FD859193FF8191D8
:1019D0003F01853229F4B70190E00E94FD0FE7CF67
:1019E000912C212C312CFFE1F31538F08B3211F1C1
:1019F00090F4803209F1833229F137FC3CC020EDAC
:101A0000280F2A3050F536FE20C08AE0989E200D1F
:101A10001124922E06C08D3291F0803371F76894B4
:101A200030F8F30193FD859193FF81913F0181117E
:101A3000DACF21C0689431F8689432F8F2CF689414
:101A400033F8EFCF689434F8ECCFEAE02E9E200D07
:101A50001124222E689435F8E4CF8E3229F436FC16
:101A600004C1689436F8DDCF8C3619F4689437F8E1
:101A7000D8CF8836B1F2982F9F7D95549330E0F0FF
:101A80008336A1F18337C1F1833509F063C02801A2
:101A9000F2E04F0E511CF801C080D180692D70E03A
:101AA00036FC02C06FEF7FEFC6010E94E00F4C01D1
:101AB000689437F882010AC00C5F1F4FFFE3F98377
:101AC00088248394912C6501E89437F833FE2DC067
:101AD000522C8114910471F5552009F468CFB70197
:101AE00080E290E00E94FD0F5A94F6CFF8018081C9
:101AF00089830E5F1F4FE4CF2801F2E04F0E511C87
:101B0000F801C080D180692D70E036FC02C06FEF13
:101B10007FEFC6010E94F20F4C018201D5CFB701C1
:101B200080E290E00E94FD0F2A942814190409F025
:101B3000B0F7CECFF60137FC859137FE81916F016A
:101B4000B70190E00E94FD0F51105A94F1E08F1AF6
:101B50009108BFCF843619F0893609F077C0F801B3
:101B600037FE6BC060817181828193810C5F1F4F52
:101B7000F32DFF763F2E97FF09C0909580957095C5
:101B800061957F4F8F4F9F4F689437F82AE030E080
:101B9000A5010E942D10C82ECA188C2C432C36FE8D
:101BA0000CC0E89440F8C91440F434FE05C032FC7F
:101BB00003C0F32DFE7E4F2E892C44FE95C0FE01FE
:101BC000EC0DF11D8081803309F087C0242D297E22
:101BD000422E842D8870582E43FC95C040FE8FC045
:101BE0009C2C821418F42C0C922C981844FE91C052
:101BF000B70180E390E00E94FD0F42FE09C088E734
:101C000090E041FE02C088E590E0B7010E94FD0F20
:101C1000C91408F48AC0CA94D12C9FEFC91AD90AF2
:101C2000CA0CDB1CF60182916F01B70190E00E94A3
:101C3000FD0FAC14BD04B1F74FCF60817181072E49
:101C4000000C880B990B0E5F1F4F92CFD32CE8949A
:101C5000D4F82AE030E0853739F1232D297FD22EC0
:101C60008F3601F148F48835A9F0F7018681978114
:101C70002B96E2E10C94D910803749F08837A9F708
:101C8000D4FE02C06894D2F820E130E00DC0689420
:101C9000D4F8F6CF34FE03C0822F8660D82E20E120
:101CA00032E002C028E030E0F801D7FE0FC06081CA
:101CB0007181828193810C5F1F4FA5010E942D10BD
:101CC000C82ECA183D2CE89437F867CF608171811F
:101CD00090E080E00E5F1F4FF0CF42FC02C0839483
:101CE00078CF8394839475CF842D867809F471CF4F
:101CF000F6CFB70180E290E00E94FD0F839482143A
:101D0000C0F3512C73CF522C5818821408F46ECFA4
:101D1000F8CF842D867809F47BCF8BE241FE80E2F8
:101D200047FC8DE2B70190E071CFB70180E390E00E
:101D30000E94FD0F9A946CCF8FEF9FEF99CF0F9376
:101D40001F93CF93DF93869F8001879F100D969FEF
:101D5000100D1124C8010E94BB0EEC01009729F060
:101D6000A80170E060E00E94EB0FCE01DF91CF91FF
:101D70001F910F9108950F931F93CF93DF9382309C
:101D8000910510F482E090E0E0912603F0912703A2
:101D900030E020E0B0E0A0E0309799F42115310563
:101DA00009F44AC0281B390B24303105D8F58A8143
:101DB0009B816115710589F1FB0193838283FE018B
:101DC00011C0408151810281138148175907E0F009
:101DD0004817590799F4109761F012960C931297CF
:101DE00013961C933296CF01DF91CF911F910F91E3
:101DF00008950093260310932703F4CF211531058E
:101E000051F04217530738F0A901DB019A01BD01D7
:101E1000DF01F801C1CFEF01F9CF90932703809341
:101E20002603CDCFFE01E20FF31F81939193225041
:101E3000310939832883D7CF20912403309125039A
:101E4000232B41F420910A0130910B01309325039B
:101E500020932403209108013091090121153105B7
:101E600041F42DB73EB740910C0150910D01241B58
:101E7000350BE0912403F0912503E217F307A0F45A
:101E80002E1B3F0B2817390778F0AC014E5F5F4FD0
:101E90002417350748F04E0F5F1F509325034093DA
:101EA0002403819391939FCFF0E0E0E09CCFCF9308
:101EB000DF930097E9F0FC01329713821282A09120
:101EC0002603B0912703ED0130E020E01097A1F444
:101ED00020813181820F931F2091240330912503AB
:101EE0002817390709F061C0F0932503E093240314
:101EF000DF91CF910895EA01CE17DF07E8F54A8117
:101F00005B819E0141155105B1F7E901FB83EA832D
:101F100049915991C40FD51FEC17FD0761F48081D9
:101F200091810296840F951FE901998388838281AC
:101F300093819B838A83F0E0E0E012968D919C91DF
:101F400013970097B9F52D913C911197CD01029609
:101F5000820F931F209124033091250328173907FE
:101F600039F6309751F51092270310922603B0935B
:101F70002503A0932403BCCFD383C2834081518126
:101F8000840F951FC817D90761F44E5F5F4F888192
:101F90009981480F591F518340838A819B81938384
:101FA00082832115310509F0B0CFF0932703E09328
:101FB00026039ECFFD01DC01C0CF13821282D7CF52
:101FC000FC010590615070400110D8F78095909504
:101FD0008E0F9F1F0895DC0101C06D93415050404A
:101FE000E0F70895FC016150704001900110D8F7AE
:101FF000809590958E0F9F1F08950F931F93CF93F9
:10200000DF93182F092FEB018B8181FD09C01FEF92
:102010000FEF812F902FDF91CF911F910F91089596
:1020200082FF14C02E813F818C819D812817390742
:102030003CF4E881F981CF0101969983888310836C
:102040008E819F8101969F838E83E3CFE885F985FA
:10205000812F0995892BA1F3DACFFA01AA2728301D
:1020600051F1203181F1E8946F936E7F6E5F7F4F65
:102070008F4F9F4FAF4FB1E03ED0B4E03CD0670FE1
:10208000781F891F9A1FA11D680F791F8A1F911D34
:10209000A11D6A0F711D811D911DA11D20D009F484
:1020A00068943F912AE0269F11243019305D3193C6
:1020B000DEF6CF010895462F4770405D4193B3E0AF
:1020C0000FD0C9F7F6CF462F4F70405D4A3318F056
:1020D000495D31FD4052419302D0A9F7EACFB4E007
:1020E000A6959795879577956795BA95C9F70097BF
:1020F0006105710508959B01AC010A2E0694579560
:10210000479537952795BA95C9F7620F731F841FB6
:10211000951FA01D0895052E97FB1EF400940E94A4
:10212000A21057FD07D00E94F41007FC03D04EF414
:102130000C94A21050954095309521953F4F4F4FEC
:102140005F4F089590958095709561957F4F8F4F63
:102150009F4F08950E941611A59F900DB49F900D5A
:10216000A49F800D911D11240895B7FF0C94AA100F
:102170000E94AA10821B930B08952F923F924F92B8
:102180005F926F927F928F929F92AF92BF92CF9207
:10219000DF92EF92FF920F931F93CF93DF93CDB710
:1021A000DEB7CA1BDB0B0FB6F894DEBF0FBECDBF88
:1021B00009942A88398848885F846E847D848C8459
:1021C0009B84AA84B984C884DF80EE80FD800C8162
:1021D0001B81AA81B981CE0FD11D0FB6F894DEBF45
:1021E0000FBECDBFED010895A1E21A2EAA1BBB1BA5
:1021F000FD010DC0AA1FBB1FEE1FFF1FA217B307D3
:10220000E407F50720F0A21BB30BE40BF50B661FE8
:10221000771F881F991F1A9469F7609570958095AC
:1022200090959B01AC01BD01CF010895A29FB00123
:10223000B39FC001A39F700D811D1124911DB29FFA
:0E224000700D811D1124911D0895F894FFCF9B
:10224E000400001401000000000028032000537455
:10225E00617274696E67205352414D2074657374B8
:10226E002E2E2E0D0057726974652070686173658D
:10227E00206572726F723A206578745F72616D5B61
:10228E002534645D203D2025303258202873686F38
:10229E00756C642062652025303258290D0A005273
:1022AE00657472696576616C20706861736520650E
:1022BE0072726F723A206578745F72616D5B25344D
:1022CE00645D203D2025303258202873686F756C70
:1022DE00642062652025303258290D0A0053524180
:1022EE004D207465737420636F6D706C65746564D6
:1022FE002077697468200D0A253464206572726F28
:10230E00727320696E2077726974652070686173CC
:10231E006520616E64200D0A253464206572726F2B
:10232E00727320696E2072657472696576616C20B5
:10233E0070686173650D0A0D0A006C656674007233
:10234E006967687400757000646F776E006E6575EE
:10235E007472616C00756E6B6E6F776E006A6F795A
:10236E00737469636B20783A2025640D0A006A6FD6
:10237E0079737469636B20793A2025640D0A0074B1
:10238E006F75636870616420783A2025640D0A00C9
:10239E00746F75636870616420793A2025640D0A44
:1023AE0000646972656374696F6E206A6F79737405
:1023BE0069636B202573200D0A004D454E55005064
:1023CE004C4159200053434F5245424F4152440015
:1023DE004C65747320676F2100312E00322E00334E
:1023EE002E005465737400736964652065722070E5
:1023FE0061202564200D0A200064617461207365DC
:10240E006E6474206F6720666174742074696C62E8
:10241E00616B653A202564200D0A006461746120A9
:10242E0073656E6474206F672066617474206F67C5
:10243E00206D6F6469666973657272742074696C5D
:0C244E0062616B653A202564200D0A00D5
:00000001FF
