:100000000C9438000C9455000C9455000C94550039
:100010000C9455000C9455000C9455000C9455000C
:100020000C9455000C9455000C9455000C945500FC
:100030000C9455000C9455000C9455000C945500EC
:100040000C9455000C9455000C9455000C945500DC
:100050000C9455000C9455000C9455000C945500CC
:100060000C9455000C9455000C9455000C945500BC
:1000700011241FBECFEFD4E0DEBFCDBF11E0A0E062
:10008000B1E0EEECF9E002C005900D92AC30B107A2
:10009000D9F721E0ACE0B1E001C01D92A631B20772
:1000A000E1F70E9457000C94E5040C9400008A9A32
:1000B0008FE190E00E947A0014E0C6E0D1E02FEFDB
:1000C0008FEF9EE0215080409040E1F700C000009B
:1000D00082B3812782BBDF93CF930E94D2000F901F
:1000E0000F90EDCF5D9BFECF8CB908955F9BFECF47
:1000F0008CB1089590BD89B988E18AB98EE880BD38
:1001000066E770E082E790E00E94870008950F9311
:100110001F93CF93DF93009759F46115710541F454
:10012000F0E0E0E0CF01DF91CF911F910F910895B2
:100130008B01EC016EE070E081E090E00E94C20271
:10014000FC01892B69F380E883830115110571F0A7
:100150001387028781E8838380910C0190910D01C0
:10016000892B21F4F0930D01E0930C012097D1F23B
:10017000D187C08783818260838380910E019091B3
:100180000F01892B79F6F0930F01E0930E01809116
:10019000100190911101892B29F6F0931101E09340
:1001A0001001C0CFB0E0A0E0E8EDF0E00C94BE0498
:1001B000AE014B5F5F4FFA0161917191AF01809188
:1001C0000E0190910F010E94E800E2E00C94DA0425
:1001D000ABE0B0E0EEEEF0E00C94AE047C013B014D
:1001E0008A01FC0117821682838181FFC8C1CE017A
:1001F00001965C01F7019381F30193FD859193FFD3
:1002000081913F01882309F453C1853239F493FD6C
:10021000859193FF81913F01853229F4B70190E0E8
:100220000E942004E7CF912C212C312CFFE1F31503
:1002300038F08B3211F190F4803209F1833229F1D8
:1002400037FC3CC020ED280F2A3050F536FE20C088
:100250008AE0989E200D1124922E06C08D3291F0D6
:10026000803371F7689430F8F30193FD859193FF23
:1002700081913F018111DACF21C0689431F86894EF
:1002800032F8F2CF689433F8EFCF689434F8ECCFBB
:10029000EAE02E9E200D1124222E689435F8E4CF3A
:1002A0008E3229F436FC04C1689436F8DDCF8C36E2
:1002B00019F4689437F8D8CF8836B1F2982F9F7D1B
:1002C00095549330E0F08336A1F18337C1F1833543
:1002D00009F063C02801F2E04F0E511CF801C08004
:1002E000D180692D70E036FC02C06FEF7FEFC60150
:1002F0000E9403044C01689437F882010AC00C5F25
:100300001F4FFFE3F98388248394912C6501E894BF
:1003100037F833FE2DC0522C8114910471F555200D
:1003200009F468CFB70180E290E00E9420045A945B
:10033000F6CFF801808189830E5F1F4FE4CF28013B
:10034000F2E04F0E511CF801C080D180692D70E0A1
:1003500036FC02C06FEF7FEFC6010E9415044C010E
:100360008201D5CFB70180E290E00E9420042A9458
:100370002814190409F0B0F7CECFF60137FC8591A7
:1003800037FE81916F01B70190E00E942004511067
:100390005A94F1E08F1A9108BFCF843619F089364C
:1003A00009F077C0F80137FE6BC0608171818281EE
:1003B00093810C5F1F4FF32DFF763F2E97FF09C0EF
:1003C00090958095709561957F4F8F4F9F4F689462
:1003D00037F82AE030E0A5010E945004C82ECA1860
:1003E0008C2C432C36FE0CC0E89440F8C91440F421
:1003F00034FE05C032FC03C0F32DFE7E4F2E892C47
:1004000044FE95C0FE01EC0DF11D8081803309F0A2
:1004100087C0242D297E422E842D8870582E43FCBF
:1004200095C040FE8FC09C2C821418F42C0C922C8A
:10043000981844FE91C0B70180E390E00E94200428
:1004400042FE09C088E790E041FE02C088E590E0E6
:10045000B7010E942004C91408F48AC0CA94D12CA0
:100460009FEFC91AD90ACA0CDB1CF60182916F01F1
:10047000B70190E00E942004AC14BD04B1F74FCF47
:1004800060817181072E000C880B990B0E5F1F4F46
:1004900092CFD32CE894D4F82AE030E0853739F1B4
:1004A000232D297FD22E8F3601F148F48835A9F00B
:1004B000F701868197812B96E2E10C94CA0480377C
:1004C00049F08837A9F7D4FE02C06894D2F820E139
:1004D00030E00DC06894D4F8F6CF34FE03C0822F0C
:1004E0008660D82E20E132E002C028E030E0F8013A
:1004F000D7FE0FC060817181828193810C5F1F4F95
:10050000A5010E945004C82ECA183D2CE89437F863
:1005100067CF6081718190E080E00E5F1F4FF0CF68
:1005200042FC02C0839478CF8394839475CF842D4A
:10053000867809F471CFF6CFB70180E290E00E948F
:10054000200483948214C0F3512C73CF522C58187A
:10055000821408F46ECFF8CF842D867809F47BCF0F
:100560008BE241FE80E247FC8DE2B70190E071CF63
:10057000B70180E390E00E9420049A946CCF8FEF43
:100580009FEF99CF0F931F93CF93DF93869F8001A7
:10059000879F100D969F100D1124C8010E94DE0246
:1005A000EC01009729F0A80170E060E00E940E04C1
:1005B000CE01DF91CF911F910F9108950F931F935B
:1005C000CF93DF938230910510F482E090E0E091C8
:1005D0001401F091150130E020E0B0E0A0E0309788
:1005E00099F42115310509F44AC0281B390B243030
:1005F0003105D8F58A819B816115710589F1FB016F
:1006000093838283FE0111C0408151810281138155
:1006100048175907E0F04817590799F4109761F007
:1006200012960C93129713961C933296CF01DF917A
:10063000CF911F910F91089500931401109315010C
:10064000F4CF2115310551F04217530738F0A901B5
:10065000DB019A01BD01DF01F801C1CFEF01F9CF44
:100660009093150180931401CDCFFE01E20FF31F8B
:10067000819391932250310939832883D7CF2091D8
:10068000120130911301232B41F42091020130918A
:100690000301309313012093120120910001309146
:1006A00001012115310541F42DB73EB740910401F8
:1006B00050910501241B350BE0911201F0911301BB
:1006C000E217F307A0F42E1B3F0B2817390778F029
:1006D000AC014E5F5F4F2417350748F04E0F5F1F88
:1006E0005093130140931201819391939FCFF0E0B7
:1006F000E0E09CCFCF93DF930097E9F0FC013297C5
:1007000013821282A0911401B0911501ED0130E025
:1007100020E01097A1F420813181820F931F209156
:100720001201309113012817390709F061C0F093C5
:100730001301E0931201DF91CF910895EA01CE17E2
:10074000DF07E8F54A815B819E0141155105B1F74C
:10075000E901FB83EA8349915991C40FD51FEC1736
:10076000FD0761F4808191810296840F951FE90154
:1007700099838883828193819B838A83F0E0E0E080
:1007800012968D919C9113970097B9F52D913C91FC
:100790001197CD010296820F931F20911201309183
:1007A00013012817390739F6309751F510921501C2
:1007B00010921401B0931301A0931201BCCFD38304
:1007C000C28340815181840F951FC817D90761F4F6
:1007D0004E5F5F4F88819981480F591F5183408335
:1007E0008A819B81938382832115310509F0B0CFE3
:1007F000F0931501E09314019ECFFD01DC01C0CF01
:1008000013821282D7CFFC01059061507040011015
:10081000D8F7809590958E0F9F1F0895DC0101C039
:100820006D9341505040E0F70895FC0161507040D5
:1008300001900110D8F7809590958E0F9F1F089515
:100840000F931F93CF93DF93182F092FEB018B8109
:1008500081FD09C01FEF0FEF812F902FDF91CF9106
:100860001F910F91089582FF14C02E813F818C81CA
:100870009D81281739073CF4E881F981CF01019661
:100880009983888310838E819F8101969F838E83B5
:10089000E3CFE885F985812F0995892BA1F3DACF7C
:1008A000FA01AA27283051F1203181F1E8946F93A1
:1008B0006E7F6E5F7F4F8F4F9F4FAF4FB1E03ED047
:1008C000B4E03CD0670F781F891F9A1FA11D680FE5
:1008D000791F8A1F911DA11D6A0F711D811D911D18
:1008E000A11D20D009F468943F912AE0269F11248D
:1008F0003019305D3193DEF6CF010895462F4770F1
:10090000405D4193B3E00FD0C9F7F6CF462F4F704B
:10091000405D4A3318F0495D31FD4052419302D0A9
:10092000A9F7EACFB4E0A69597958795779567954F
:10093000BA95C9F700976105710508959B01AC014F
:100940000A2E06945795479537952795BA95C9F776
:10095000620F731F841F951FA01D08952F923F9251
:100960004F925F926F927F928F929F92AF92BF92BF
:10097000CF92DF92EF92FF920F931F93CF93DF936B
:10098000CDB7DEB7CA1BDB0B0FB6F894DEBF0FBEC8
:10099000CDBF09942A88398848885F846E847D8415
:1009A0008C849B84AA84B984C884DF80EE80FD8017
:1009B0000C811B81AA81B981CE0FD11D0FB6F8948D
:0E09C000DEBF0FBECDBFED010895F894FFCF4E
:0C09CE0000001601200054657374000046
:00000001FF
