:100000000C9438000C9455000C9455000C94A002EC
:100010000C9455000C9455000C9455000C9455000C
:100020000C9455000C9455000C9455000C945500FC
:100030000C9455000C9455000C9455000C945500EC
:100040000C9455000C9455000C9455000C945500DC
:100050000C9455000C9455000C9455000C945500CC
:100060000C9455000C9455000C9455000C945500BC
:1000700011241FBECFEFD4E0DEBFCDBF12E0A0E061
:10008000B1E0E2E5F1E102C005900D92A038B107C0
:10009000D9F722E0A0E8B2E001C01D92A339B2076F
:1000A000E1F70E9457000C94A7080C9400008FE120
:1000B00090E00E9490000E949D000E9435010E94E5
:1000C00096020E9471021BC00F2EF0E0EF2EF1E0AD
:1000D000FF2EF02D01E812E025E832E046E852E07C
:1000E00067E872E088E892E00E9406032FEF8FEF46
:1000F0009EE0215080409040E1F700C000000E9447
:100100003F01809180028823F9F210928002DCCFB7
:100110005D9BFECF8CB908955F9BFECF8CB1089597
:1001200090BD89B988E18AB98EE880BD6CE870E03D
:1001300088E890E00E94BB03089585B7806885BF7A
:1001400080B7806280BF0895FB01F85E80830895C8
:10015000985EFC0180810895CF92DF92EF92FF922A
:100160000F931F93CF93DF938EE091E00E941C04C6
:100170000E94AB036C010E94B003D0E0C0E010E02D
:1001800000E00F2EF5E2EF2EF1E0FF2EF02D05C07E
:100190002196C11598E0D907F1F00E94AB03FE014A
:1001A000F85E80832081281799F399279F938F9376
:1001B0001F922F93DF93CF93FF92EF920E9406043A
:1001C0000F5F1F4F8DB79EB708960FB6F8949EBF6E
:1001D0000FBE8DBFDDCFC6010E94B003D0E0C0E0EE
:1001E000F12CE12C0F2EFFE5CF2EF1E0DF2EF02DCC
:1001F00005C02196C11598E0D907F1F00E94AB0324
:10020000FE01F85E20812817A1F399279F938F9311
:100210001F922F93DF93CF93DF92CF920E94060419
:100220008FEFE81AF80A8DB79EB708960FB6F894C4
:100230009EBF0FBE8DBFDDCFFF92EF921F930F9336
:100240008DE991E09F938F930E9406040F900F9089
:100250000F900F900F900F90DF91CF911F910F9102
:10026000FF90EF90DF90CF9008958D9A83E48FBD3B
:1002700089E18EBD82E090E09BBD8ABD0895E0914A
:100280000201F091030110820895E0910201F091C2
:100290000301E081DC01EC93E0910201F0910301A4
:1002A0008081FB018083E0910201F0910301808154
:1002B000DA018C93E0910201F09103018081F90150
:1002C00080830895EF92FF920F931F93CF93DF9354
:1002D000F801DB010C91005A110BDA01CC91C058E6
:1002E000DD0BD9012C912058330BDC016C91605A45
:1002F000770B44E6469FC001479F900D11240F2EB7
:10030000FAE5EF2EF12CF02DB7010E943703608340
:10031000409FC001419F900D1124B7010E943703F7
:1003200061834C9FC0014D9F900D11249923CCF007
:10033000880F892F881F990B828344E6429FC00152
:10034000439F900D112499237CF0880F892F881FDB
:10035000990B8383DF91CF911F910F91FF90EF90C5
:10036000089581589F4FE4CF81589F4FEECFFC01F5
:1003700040815181252F052E000C330B3323A4F02F
:10038000842F042E000C990B992394F02817390719
:10039000FCF0552389F0B4F015167CF582E090E06E
:1003A000FB01918380830895319521953109E8CF30
:1003B000919581959109EACF84E090E0FB019183CA
:1003C0008083089583E090E0FB019183808308950A
:1003D000442344F0141654F481E090E0FB0191832F
:1003E00080830895FB01118210820895411105C098
:1003F00084E090E0FB019183808308958230910531
:1004000081F038F40097B1F0019789F48FEF91E013
:1004100008958330910541F0049749F48DE092E00E
:10042000089585E092E0089588E092E0089585E1DE
:1004300092E008958AEF91E008950F931F93CF9370
:10044000DF93EC018B018881282F082E000C330BE1
:100450003F938F938DE192E09F938F930E940604C8
:100460008981282F082E000C330B3F938F938EE247
:1004700092E09F938F930E9406048A81282F082E72
:10048000000C330B3F938F938FE392E09F938F93F6
:100490000E9406048B81282F082E000C330B3F93FB
:1004A0008F9380E592E09F938F930E940604F8015A
:1004B000808191810E94FE019F938F9381E692E05B
:1004C0009F938F930E9406048DB79EB744960FB6F4
:1004D000F8949EBF0FBE8DBFDF91CF911F910F91FA
:1004E000089587B3806A87BBBC9AC49A81E58DB9A9
:1004F0008B9A8C9A949A939A089580E287BB80E4B1
:100500008DB908958FB9779903C08FB1779BFDCFCF
:100510000895779BFECF8FB108959398949A08958C
:100520009498939A0895939A949A0895F894329887
:1005300085B7836085BF8BB780628BBF7894089541
:100540001F920F920FB60F9211242F933F934F9348
:100550005F936F937F938F939F93AF93BF93EF932B
:10056000FF9381E08093800225E832E046E852E084
:1005700067E872E088E892E00E944501FF91EF9100
:10058000BF91AF919F918F917F916F915F914F91AB
:100590003F912F910F900FBE0F901F90189585E5FA
:1005A00090E0A0E0B0E08093C02A9093C12AA0938D
:1005B000C22AB093C32A2FED83E994E021508040F2
:1005C0009040E1F700C0000082B394E0892782BB2D
:1005D0000E948C0099270E9488008AE792E09F93EE
:1005E0008F930E9406040F900F9008958A9A319A73
:1005F0008AB38FEF8ABB399885E58BBB399A3998D6
:100600008AEA8BBB08950E94AC0008956F927F9296
:100610008F929F92AF92BF92CF92DF92EF92FF9212
:100620000F931F93CF93DF93EC016B015A014901A4
:100630000E9445019401A501B601CE010E9462010C
:10064000B701C8010E94B701B701C8010E941D028D
:10065000DF91CF911F910F91FF90EF90DF90CF909E
:10066000BF90AF909F908F907F906F90089597FB71
:10067000072E16F4009407D077FD09D00E944B0393
:1006800007FC05D03EF4909581959F4F0895709595
:1006900061957F4F0895AA1BBB1B51E107C0AA1F9C
:1006A000BB1FA617B70710F0A61BB70B881F991F13
:1006B0005A95A9F780959095BC01CD0108958F9228
:1006C0009F92AF92BF92CF92DF92EF92FF92CF9321
:1006D000DF93EC01688179818A819B8161157105C5
:1006E0008105910521F464E279ED8BE597E02DE138
:1006F00033EF41E050E00E940D0849015A019B018F
:10070000AC01A7EAB1E40E942C086B017C01ACEEBD
:10071000B4EFA50194010E943A08DC01CB018C0DD5
:100720009D1DAE1DBF1DB7FF03C00197A109B048B5
:1007300088839983AA83BB839F77DF91CF91FF90B2
:10074000EF90DF90CF90BF90AF909F908F900895E3
:100750000E945F03089584E091E00E945F03089582
:10076000B0E0A0E08093040190930501A0930601FE
:10077000B093070108950F931F93CF93DF930097D2
:1007800059F46115710541F4F0E0E0E0CF01DF912B
:10079000CF911F910F9108958B01EC016EE070E0F5
:1007A00081E090E00E942106FC01892B69F380E83A
:1007B00083830115110571F01387028781E8838314
:1007C0008091890290918A02892B21F4F0938A0208
:1007D000E09389022097D1F2D187C087838182601C
:1007E000838380918B0290918C02892B79F6F09310
:1007F0008C02E0938B0280918D0290918E02892B66
:1008000029F6F0938E02E0938D02C0CFB0E0A0E015
:10081000ECE0F4E00C944F08AE014B5F5F4FFA013F
:1008200061917191AF0180918B0290918C020E9435
:100830004704E2E00C946B080F931F93CF93DF9370
:10084000E0918B02F0918C022381EC0110E000E03A
:1008500021FD08C00FEF1FEF14C00995892B11F07F
:100860000FEF1FEF899160918B0270918C02DB0179
:100870001896ED91FC918111F0CF8AE00995892BB2
:1008800049F7C801DF91CF911F910F910895ABE017
:10089000B0E0EDE4F4E00C943F087C013B018A01F8
:1008A000FC0117821682838181FFC8C1CE010196A7
:1008B0005C01F7019381F30193FD859193FF819191
:1008C0003F01882309F453C1853239F493FD8591A2
:1008D00093FF81913F01853229F4B70190E00E9496
:1008E0007F07E7CF912C212C312CFFE1F31538F055
:1008F0008B3211F190F4803209F1833229F137FC07
:100900003CC020ED280F2A3050F536FE20C08AE08A
:10091000989E200D1124922E06C08D3291F08033C6
:1009200071F7689430F8F30193FD859193FF8191FD
:100930003F018111DACF21C0689431F8689432F810
:10094000F2CF689433F8EFCF689434F8ECCFEAE054
:100950002E9E200D1124222E689435F8E4CF8E327D
:1009600029F436FC04C1689436F8DDCF8C3619F4CE
:10097000689437F8D8CF8836B1F2982F9F7D955478
:100980009330E0F08336A1F18337C1F1833509F06C
:1009900063C02801F2E04F0E511CF801C080D180E5
:1009A000692D70E036FC02C06FEF7FEFC6010E9438
:1009B00062074C01689437F882010AC00C5F1F4F30
:1009C000FFE3F98388248394912C6501E89437F838
:1009D00033FE2DC0522C8114910471F5552009F479
:1009E00068CFB70180E290E00E947F075A94F6CF6B
:1009F000F801808189830E5F1F4FE4CF2801F2E068
:100A00004F0E511CF801C080D180692D70E036FC7A
:100A100002C06FEF7FEFC6010E9474074C01820194
:100A2000D5CFB70180E290E00E947F072A94281476
:100A3000190409F0B0F7CECFF60137FC859137FEE7
:100A400081916F01B70190E00E947F0751105A9485
:100A5000F1E08F1A9108BFCF843619F0893609F07A
:100A600077C0F80137FE6BC060817181828193810C
:100A70000C5F1F4FF32DFF763F2E97FF09C0909517
:100A80008095709561957F4F8F4F9F4F689437F891
:100A90002AE030E0A5010E94AF07C82ECA188C2CAE
:100AA000432C36FE0CC0E89440F8C91440F434FEE0
:100AB00005C032FC03C0F32DFE7E4F2E892C44FE70
:100AC00095C0FE01EC0DF11D8081803309F087C0D7
:100AD000242D297E422E842D8870582E43FC95C0EB
:100AE00040FE8FC09C2C821418F42C0C922C981869
:100AF00044FE91C0B70180E390E00E947F0742FE70
:100B000009C088E790E041FE02C088E590E0B701A7
:100B10000E947F07C91408F48AC0CA94D12C9FEFA1
:100B2000C91AD90ACA0CDB1CF60182916F01B70100
:100B300090E00E947F07AC14BD04B1F74FCF6081F5
:100B40007181072E000C880B990B0E5F1F4F92CFFF
:100B5000D32CE894D4F82AE030E0853739F1232DFE
:100B6000297FD22E8F3601F148F48835A9F0F7019C
:100B7000868197812B96E2E10C945B08803749F0DF
:100B80008837A9F7D4FE02C06894D2F820E130E09B
:100B90000DC06894D4F8F6CF34FE03C0822F86606F
:100BA000D82E20E132E002C028E030E0F801D7FE84
:100BB0000FC060817181828193810C5F1F4FA501FD
:100BC0000E94AF07C82ECA183D2CE89437F867CFAB
:100BD0006081718190E080E00E5F1F4FF0CF42FC9A
:100BE00002C0839478CF8394839475CF842D8678C4
:100BF00009F471CFF6CFB70180E290E00E947F0741
:100C000083948214C0F3512C73CF522C5818821441
:100C100008F46ECFF8CF842D867809F47BCF8BE271
:100C200041FE80E247FC8DE2B70190E071CFB70151
:100C300080E390E00E947F079A946CCF8FEF9FEF44
:100C400099CF0F931F93CF93DF93869F8001879F48
:100C5000100D969F100D1124C8010E943D06EC0155
:100C6000009729F0A80170E060E00E946D07CE01B6
:100C7000DF91CF911F910F9108950F931F93CF9301
:100C8000DF938230910510F482E090E0E0919102D0
:100C9000F091920230E020E0B0E0A0E0309799F4CB
:100CA0002115310509F44AC0281B390B24303105C0
:100CB000D8F58A819B816115710589F1FB019383C8
:100CC0008283FE0111C04081518102811381481746
:100CD0005907E0F04817590799F4109761F01296F8
:100CE0000C93129713961C933296CF01DF91CF91FC
:100CF0001F910F9108950093910210939202F4CFE7
:100D00002115310551F04217530738F0A901DB01D5
:100D10009A01BD01DF01F801C1CFEF01F9CF909336
:100D2000920280939102CDCFFE01E20FF31F8193D7
:100D300091932250310939832883D7CF20918F0294
:100D400030919002232B41F420910A0130910B0144
:100D50003093900220938F02209108013091090175
:100D60002115310541F42DB73EB740910C0150914A
:100D70000D01241B350BE0918F02F0919002E217D8
:100D8000F307A0F42E1B3F0B2817390778F0AC01AE
:100D90004E5F5F4F2417350748F04E0F5F1F50938B
:100DA000900240938F02819391939FCFF0E0E0E017
:100DB0009CCFCF93DF930097E9F0FC013297138229
:100DC0001282A0919102B0919202ED0130E020E0F8
:100DD0001097A1F420813181820F931F20918F02FF
:100DE000309190022817390709F061C0F093900202
:100DF000E0938F02DF91CF910895EA01CE17DF07CC
:100E0000E8F54A815B819E0141155105B1F7E90181
:100E1000FB83EA8349915991C40FD51FEC17FD0755
:100E200061F4808191810296840F951FE901998375
:100E30008883828193819B838A83F0E0E0E012962D
:100E40008D919C9113970097B9F52D913C91119735
:100E5000CD010296820F931F20918F023091900254
:100E60002817390739F6309751F5109292021092EF
:100E70009102B0939002A0938F02BCCFD383C28320
:100E800040815181840F951FC817D90761F44E5FC7
:100E90005F4F88819981480F591F518340838A8110
:100EA0009B81938382832115310509F0B0CFF093A4
:100EB0009202E09391029ECFFD01DC01C0CF13822C
:100EC0001282D7CFFC010590615070400110D8F715
:100ED000809590958E0F9F1F0895DC0101C06D9342
:100EE00041505040E0F70895FC016150704001907E
:100EF0000110D8F7809590958E0F9F1F08950F933E
:100F00001F93CF93DF93182F092FEB018B8181FD66
:100F100009C01FEF0FEF812F902FDF91CF911F910D
:100F20000F91089582FF14C02E813F818C819D8195
:100F3000281739073CF4E881F981CF01019699839C
:100F4000888310838E819F8101969F838E83E3CF58
:100F5000E885F985812F0995892BA1F3DACFFA016C
:100F6000AA27283051F1203181F1E8946F936E7FE8
:100F70006E5F7F4F8F4F9F4FAF4FB1E03ED0B4E0D9
:100F80003CD0670F781F891F9A1FA11D680F791F1A
:100F90008A1F911DA11D6A0F711D811D911DA11D2B
:100FA00020D009F468943F912AE0269F112430193B
:100FB000305D3193DEF6CF010895462F4770405DD6
:100FC0004193B3E00FD0C9F7F6CF462F4F70405D85
:100FD0004A3318F0495D31FD4052419302D0A9F7E0
:100FE000EACFB4E0A6959795879577956795BA95DA
:100FF000C9F700976105710508959B01AC010A2EA0
:1010000006945795479537952795BA95C9F7620F76
:10101000731F841F951FA01D0895052E97FB1EF4B6
:1010200000940E94240857FD07D00E94760807FC10
:1010300003D04EF40C94240850954095309521959A
:101040003F4F4F4F5F4F08959095809570956195F4
:101050007F4F8F4F9F4F08950E949808A59F900D36
:10106000B49F900DA49F800D911D11240895B7FF8A
:101070000C942C080E942C08821B930B08952F922D
:101080003F924F925F926F927F928F929F92AF9218
:10109000BF92CF92DF92EF92FF920F931F93CF9365
:1010A000DF93CDB7DEB7CA1BDB0B0FB6F894DEBFFC
:1010B0000FBECDBF09942A88398848885F846E8422
:1010C0007D848C849B84AA84B984C884DF80EE806C
:1010D000FD800C811B81AA81B981CE0FD11D0FB675
:1010E000F894DEBF0FBECDBFED010895A1E21A2E28
:1010F000AA1BBB1BFD010DC0AA1FBB1FEE1FFF1FBC
:10110000A217B307E407F50720F0A21BB30BE40B0B
:10111000F50B661F771F881F991F1A9469F7609552
:101120007095809590959B01AC01BD01CF0108950C
:10113000A29FB001B39FC001A39F700D811D112418
:10114000911DB29F700D811D1124911D0895F89479
:02115000FFCFCF
:1011520004000014010000000000930220005374F8
:10116200617274696E67205352414D2074657374C5
:101172002E2E2E0D0057726974652070686173659A
:10118200206572726F723A206578745F72616D5B6E
:101192002534645D203D2025303258202873686F45
:1011A200756C642062652025303258290D0A005280
:1011B200657472696576616C20706861736520651B
:1011C20072726F723A206578745F72616D5B25345A
:1011D200645D203D2025303258202873686F756C7D
:1011E200642062652025303258290D0A005352418D
:1011F2004D207465737420636F6D706C65746564E3
:101202002077697468200D0A253464206572726F34
:10121200727320696E2077726974652070686173D9
:101222006520616E64200D0A253464206572726F38
:10123200727320696E2072657472696576616C20C2
:1012420070686173650D0A0D0A006C656674007240
:101252006967687400757000646F776E006E6575FB
:101262007472616C00756E6B6E6F776E006A6F7967
:10127200737469636B20783A2025640D0A006A6FE3
:1012820079737469636B20793A2025640D0A0074BE
:101292006F75636870616420783A2025640D0A00D6
:1012A200746F75636870616420793A2025640D0A51
:1012B20000646972656374696F6E206A6F79737412
:1012C20069636B202573200D0A0054657374000056
:00000001FF
