:100000000C9460030C947D030C947D030C94DA082B
:100010000C947D030C947D030C947D030C947D0360
:100020000C947D030C947D030C947D030C947D0350
:100030000C947D030C947D030C947D030C947D0340
:100040000C947D030C947D030C947D030C947D0330
:100050000C947D030C947D030C947D030C947D0320
:100060000C947D030C947D030C947D030C947D0310
:1000700000000000005C00000C000C007C287C28C4
:1000800058DC68002410480028542840000C000068
:10009000007884008478000054385400107C1000EC
:1000A00080400000101010000040000060100C00A4
:1000B00038543800487C40004864580044542C00B0
:1000C0001C107C005C5424003854240064140C0080
:1000D00068542C0048543800004800008048000054
:1000E0001028440028282800442810000454080040
:1000F00038445C00781478007C5428003844280088
:100100007C4438007C5444007C140400384474005F
:100110007C107C00447C440020403C007C106C003F
:100120007C4040007C187C0078103C00384438004B
:100130007C1408003844B8007C146800485424003B
:10014000047C04007C407C003C603C007C307C00F3
:100150006C106C000C700C0064544C00007C44006B
:100160000C106000447C00000804080080808000BF
:1001700000040800304878007C48300030484800CF
:1001800030487C00306850001078140090A8780047
:100190007C08700050744000808074007C106800FF
:1001A000447C4000781078007808700030483000B7
:1001B000F82810003048F80078100800505828003F
:1001C000083C4800384078003840380078207800F3
:1001D0004830480098A0780048685800107884009B
:1001E000007C00008478100008040804000000006F
:1001F0000000005F00000007000700147F147F1458
:10020000242A7F2A1223130864623649552250009B
:1002100005030000001C2241000041221C00082AA6
:100220001C2A0808083E080800503000000808088A
:100230000808006060000020100804023E51494593
:100240003E00427F400042615149462141454B31C9
:100250001814127F1027454545393C4A4949300159
:10026000710905033649494936064949291E0036B0
:100270003600000056360000000814224114141401
:10028000141441221408000201510906324979412F
:100290003E7E1111117E7F494949363E414141223E
:1002A0007F4141221C7F494949417F090901013EA3
:1002B000414151327F0808087F00417F41002040C2
:1002C000413F017F081422417F404040407F0204AB
:1002D000027F7F0408107F3E4141413E7F090909AA
:1002E000063E4151215E7F09192946464949493157
:1002F00001017F01013F4040403F1F2040201F7F00
:100300002018207F631408146303047804036151E8
:1003100049454300007F4141020408102041417FCC
:100320000000040201020440404040400001020479
:100330000020545454787F4844443838444444207E
:10034000384444487F3854545418087E0901020840
:100350001454543C7F0804047800447D400020403D
:10036000443D00007F10284400417F40007C041879
:1003700004787C0804047838444444387C14141409
:1003800008081414187C7C080404084854545420A9
:10039000043F4440203C4040207C1C2040201C3C2A
:1003A0004030403C44281028440C5050503C446499
:1003B000544C44000836410000007F0000004136E4
:1003C000080002010302010000000000000000001C
:1003D000065F5F0600000000070700070700001423
:1003E0007F7F147F7F1400242E6B6B3A120000462F
:1003F0006630180C666200307A4F5D377A48000428
:1004000007030000000000001C3E634100000000E4
:1004100041633E1C000000082A3E1C1C3E2A0808BE
:10042000083E3E0808000000A0E060000000000850
:100430000808080808000000006060000000006074
:1004400030180C060301003E7F594D7F3E000042EC
:10045000427F7F40400000627359496F660000226E
:100460006349497F360000181C16137F7F10002750
:100470006745457D3900003C7E4B497930000003DB
:100480006371190F070000367F49497F3600000667
:100490004F49693F1E000000006C6C000000000026
:1004A000A0EC6C00000000081C3663410000001442
:1004B00014141414140000004163361C08000002D8
:1004C0000351590F0600003E7F415D5D1F1E007CF9
:1004D0007E13137E7C0000417F7F49497F36001CDC
:1004E0003E634141632200417F7F41637F1C0041A5
:1004F0007F7F495D416300417F7F491D0103001CEF
:100500003E6341517372007F7F08087F7F000000C7
:10051000417F7F41000000307040417F3F0100413A
:100520007F7F081C776300417F7F41406070007FC0
:100530007F060C067F7F007F7F060C187F7F001CE4
:100540003E6341633E1C00417F7F49090F06001E48
:100550003F21717F5E0000417F7F19396F46002681
:10056000674D597B32000003417F7F410300007FCC
:100570007F40407F7F00001F3F60603F1F00007F83
:100580007F3018307F7F0063771C081C776300077B
:100590004F78784F0700006773594D47637100002B
:1005A0007F7F41410000000103060C18306000000D
:1005B00041417F7F000000080C0603060C08008004
:1005C000808080808080800000030704000000207D
:1005D0007454543C784000413F7F44447C38003898
:1005E0007C44446C280000307848493F7F40003804
:1005F0007C54545C180000487E7F49030200009838
:10060000BCA4A4F87C0400417F7F08047C7800002F
:10061000447D7D4000000040C484FD7D0000004119
:100620007F7F10386C440000417F7F400000007CD9
:100630007C0C180C7C78007C7C04047C78000038EE
:100640007C44447C38000084FCF8A4243C18001846
:100650003C24A4F8FC8400447C78441C1800004826
:100660005C54547424000000043E7F442400003C89
:100670007C40403C7C40001C3C60603C1C00003CDA
:100680007C6030607C3C00446C3810386C44009CCA
:10069000BCA0A0FC7C00004C64745C4C64000008AE
:1006A000083E7741410000000000777700000041DC
:1006B00041773E0808000002030103020301000025
:1006C00011241FBECFEFD4E0DEBFCDBF13E0A0E00A
:1006D000B1E0E0EFF2E202C005900D92AC32B1075A
:1006E000D9F723E0ACE2B3E001C01D92A734B20712
:1006F000E1F70E947F030C9476110C940000CF93D5
:10070000DF93CDB7DEB766970FB6F894DEBF0FBEA6
:10071000CDBF8FE190E00E943C040E9449040E94FA
:10072000E1040E94D0080E9450060E948F0A0E9495
:10073000D7060E94C3070E94B80B0E94F40AFE016C
:10074000379685E0DF011D928A95E9F783E291E013
:100750009A83898383E08B8381E68C838DE68D8306
:1007600081E38E830F2EFEE04F2EF1E05F2EF02D01
:100770000F2EF8E26F2EF1E07F2EF02D08C083E4FB
:1007800091E00E94EB0CA0E0B0EF1197F1F70F2E73
:10079000FEE28F2EF3E09F2EF02D0F2EFCE2AF2E07
:1007A000F3E0BF2EF02D0F2EFAE3CF2EF3E0DF2E75
:1007B000F02D0F2EF0E0EF2EF1E0FF2EF02D05E3EF
:1007C00013E021E333E042E353E063E373E084E3C7
:1007D00093E00E94E709CE0101960E94050BCE012D
:1007E0000C960E944C0B882371F28E85282F082EC0
:1007F000000C330B3F938F938D858F938C858F9354
:100800005F924F920E94D50C0F900F900F900F9017
:100810000F900F908E8518160CF0B1CF8E01015FEE
:100820001F4FF12CE12CF80181918F01282F082E08
:10083000000C330B3F938F937F926F920E94D50CE5
:1008400089E999E00197F1F700C09FEFE91AF90AE9
:100850008E85082E000C990B0F900F900F900F9023
:10086000E816F90604F38BCF5D9BFECF8CB9089593
:100870005F9BFECF8CB1089590BD89B988E18AB99C
:100880008EE880BD68E374E084E394E00E948A0C03
:10089000089585B7806885BF80B7806280BF08955E
:1008A000FB01F85E80830895985EFC0180810895C5
:1008B000CF92DF92EF92FF920F931F93CF93DF932C
:1008C0008EE291E00E94EB0C0E947A0C6C010E9477
:1008D0007F0CD0E0C0E010E000E00F2EF5E4EF2E3A
:1008E000F1E0FF2EF02D05C02196C11598E0D90743
:1008F000F1F00E947A0CFE01F85E808320812817B7
:1009000099F399279F938F931F922F93DF93CF9300
:10091000FF92EF920E94D50C0F5F1F4F8DB79EB7CD
:1009200008960FB6F8949EBF0FBE8DBFDDCFC601EF
:100930000E947F0CD0E0C0E0F12CE12C0F2EFFE7ED
:10094000CF2EF1E0DF2EF02D05C02196C11598E0E5
:10095000D907F1F00E947A0CFE01F85E2081281779
:10096000A1F399279F938F931F922F93DF93CF9398
:10097000DF92CF920E94D50C8FEFE81AF80A8DB75C
:100980009EB708960FB6F8949EBF0FBE8DBFDDCF01
:10099000FF92EF921F930F938DEB91E09F938F93B4
:1009A0000E94D50C0F900F900F900F900F900F900A
:1009B000DF91CF911F910F91FF90EF90DF90CF903B
:1009C00008958D9A83E48FBD89E18EBD82E090E029
:1009D0009BBD8ABD0895E0910201F0910301108250
:1009E0000895E0910201F0910301E081DC01EC93B4
:1009F000E0910201F09103018081FB018083E0918D
:100A00000201F09103018081DA018C93E0910201EF
:100A1000F09103018081F901808308950F931F9362
:100A2000CF93DF93F801DC018C91DB01CC91DA01EB
:100A30004C91D9012C91A82FA05ABB0B34E63A9FB8
:100A4000C0013B9F900D11240AE510E0B8010E94FF
:100A5000060C6083C05ADD0B3C9FC0013D9F900D8A
:100A60001124B8010E94060C61834058550B349F35
:100A7000C001359F900D11249923CCF0880F892F48
:100A8000881F990B82832058330B44E6429FC00194
:100A9000439F900D112499236CF0880F892F881F94
:100AA000990B8383DF91CF911F910F910895815806
:100AB0009F4FE4CF81589F4FF0CFFC0120814181AF
:100AC000042E000C550B5523A4F0022E000C330B02
:100AD00033239CF04217530704F18181883D8CF049
:100AE00081818932A4F082E090E0FB0191838083D0
:100AF0000895519541955109E8CF319521953109D6
:100B0000E9CF83E090E0FB0191838083089584E046
:100B100090E0FB019183808308958081883D4CF0B3
:100B20008081893254F484E090E0FB0191838083DA
:100B30000895FB0111821082089581E090E0FB018D
:100B40009183808308958230910581F038F4009775
:100B5000B1F0019789F48FE192E008958330910517
:100B600041F0049749F48DE292E0089585E292E025
:100B7000089588E292E0089585E392E008958AE17D
:100B800092E008950F931F93CF93DF93EC018B01B5
:100B90008881282F082E000C330B3F938F938DE311
:100BA00092E09F938F930E94D50C8981282F082E65
:100BB000000C330B3F938F938EE492E09F938F93BF
:100BC0000E94D50C8A81282F082E000C330B3F93EE
:100BD0008F938FE592E09F938F930E94D50C8B812A
:100BE000282F082E000C330B3F938F9380E792E061
:100BF0009F938F930E94D50CF801808191810E9470
:100C0000A3059F938F9381E892E09F938F930E9417
:100C1000D50C8DB79EB744960FB6F8949EBF0FBE05
:100C20008DBFDF91CF911F910F9108956F927F92A9
:100C30008F929F92AF92BF92CF92DF92EF92FF92EC
:100C40000F931F93CF93DF93EC016B015A0149017E
:100C500038010E94EB04809130038111109230031F
:100C60009401A501B601CE010E94F1048301940113
:100C7000A501B601CE010E940E05B701C3010E9475
:100C80005D05DF91CF911F910F91FF90EF90DF9065
:100C9000CF90BF90AF909F908F907F906F9008956E
:100CA00087B3806A87BBBC9AC49A81E58DB98B9A59
:100CB0008C9AB89A949A939AC09A089580E287BBC6
:100CC00080E48DB908958FB9779903C08FB1779B70
:100CD000FDCF08958FB9779903C08FB1779BFDCF72
:100CE0008FB1089580E00E946A060895779BFECF39
:100CF0008FB108959398949AC09A08959498939A6E
:100D0000C09A0895939A949AC09A0895C098939A15
:100D1000949A08953A98329A08953A9A329A089590
:100D2000CF93C82F0E948D060E947A068C2F0E94B6
:100D300063060E948206CF910895CF93C82F0E9428
:100D40008A060E947A068C2F0E9463060E94820601
:100D5000CF9108958770806B0E949D060895CF9370
:100D6000C82F8F700E949D068C2F82958F70806196
:100D70000E949D06CF910895CF93DF930E94AA060B
:100D800080E00E94AF06C0E8D0E080E00E949006BC
:100D90002197D9F7DF91CF910895CF93C0E08C2FA1
:100DA0000E94BC06CF5FC830D1F7CF9108958EEA7C
:100DB0000E949D0680E20E949D0682E00E949D06A0
:100DC00081EA0E949D0688EC0E949D0683ED0E94A8
:100DD0009D0680E00E949D0680E40E949D068FEAA9
:100DE0000E949D060E94CD060895CF93DF93D82FD1
:100DF000C0E08C2F0E94AA068D2F0E94AF0680E0D3
:100E00000E949006CF5FC038A1F7DF91CF9108957F
:100E1000CF93C62F0E94AA068C2F0E94AF06CF91B7
:100E200008950E94080788E10E9490068CE30E94C2
:100E300090068EE70E94900688E10E94900688E165
:100E40000E94900608950F931F93CF93DF93962FE0
:100E5000D22FC0EEC80FCF3580F4642F892F0E94A7
:100E60000807D53011F1D83051F0D43009F43AC028
:100E7000DF91CF911F910F910895C0E0EECFD0E0A8
:100E8000CC0FDD1FCC0FDD1FCC0FDD1F8E010953F2
:100E90001C4FC153DC4FF80184910E9490060F5FF4
:100EA0001F4F0C171D07B9F7E3CF8CE30E94900684
:100EB00088E10E949006D0E0CE01880F991F880F2C
:100EC000991FC80FD91F8E0104511E4FCF50DE4FFE
:100ED000F80184910E9490060F5F1F4F0C171D07A9
:100EE000B9F7C6CFD0E0CC0FDD1FCC0FDD1F8E01D0
:100EF00000591F4FCC58DF4FF80184910E94900693
:100F00000F5F1F4F0C171D07B9F7B2CFEF92FF927B
:100F10000F931F93CF93DF937C01D62FC42F022F03
:100F2000FC018081882311F110E00EC0202F40E0E9
:100F30006D2F0E942307C0E01F5FC85FF701E10F1C
:100F4000F11D8081882391F02C2F30E0285F3F4FE6
:100F5000213831052CF0DF5FD83041F7D0E0E6CF03
:100F6000202F4C2F6D2F0E942307E6CFDF91CF91CA
:100F70001F910F91FF90EF90089580528F3508F4E4
:100F8000089580E0FDCF0E94CD0628E042E360E0B6
:100F90008AE992E00E94860724E040E062E08FE95F
:100FA00092E00E94860724E040E064E085EA92E057
:100FB0000E94860768E282E00E9411070895CF939D
:100FC000DF93EB01FC018081918182309105C9F0B2
:100FD0000397D9F488819981892BB9F482E00E9422
:100FE000BC0624E040E062E08FE992E00E948607C0
:100FF00068E584E00E94110781E090E0998388838E
:1010000004C088819981019719F0DF91CF910895EB
:1010100084E00E94BC0624E040E064E085EA92E0BF
:101020000E94860768E282E00E94110719821882F6
:10103000ECCF82E00E94850A83E00E94850A8FEF50
:101040009FEB0197F1F700C0000082E00E948A0A3E
:1010500083E00E948A0A8FEF9FEB0197F1F700C0AF
:10106000000081E00E94850A84E00E94850A8FEFDB
:101070009FEB0197F1F700C0000081E00E948A0A0F
:1010800084E00E948A0A8FEF9FEB0197F1F700C07E
:10109000000080E00E94850A85E00E94850A8FEFAB
:1010A0009FEB0197F1F700C0000080E00E948A0AE0
:1010B00085E00E948A0A0895C0E08C2F0E94850A6C
:1010C00089E999E00197F1F700C0CF5FC730A9F730
:1010D0008FEF9FEB0197F1F700C00000C6E08C2F67
:1010E0000E948A0A89E999E00197F1F700C0C1508E
:1010F000F6CFCF93DF93EC01FB01808191810097C4
:1011000029F0019799F0DF91CF9108950E94CD06C3
:1011100028E04EE163E080EB92E00E9486070E94A7
:10112000190881E090E099838883EDCF0E94CD0675
:1011300028E044E160E085EA92E00E94860724E02E
:1011400040E062E089EB92E00E94860724E040E004
:1011500064E08CEB92E00E94860724E040E066E0C9
:101160008FEB92E00E94860782E090E0998388836B
:10117000CACF0F931F93CF93DF93FC01818186FD2C
:1011800005C0DF91CF911F910F910895EA018B0166
:101190000E94C307F8011182108219821882F1CFD0
:1011A000F894329885B7836085BF8BB780628BBF18
:1011B000789408951F920F920FB60F9211242F93D7
:1011C0003F934F935F936F937F938F939F93AF93CF
:1011D000BF93EF93FF9381E08093300321E333E0EB
:1011E00042E353E063E373E084E393E00E94F1049D
:1011F000FF91EF91BF91AF919F918F917F916F91EF
:101200005F914F913F912F910F900FBE0F901F90C4
:10121000189585E590E0A0E0B0E08093C02A909317
:10122000C12AA093C22AB093C32A2FEF8FE796E179
:10123000215080409040E1F700C000C082B394E0AC
:10124000892782BB0E94380499270E94340482ECCB
:1012500092E09F938F930E94D50C0F900F9008956A
:101260008A9A319A8AB38FEF8ABB399885E58BBB0E
:10127000399A39988AEA8BBB08950E9458040895D8
:101280006F927F928F929F92AF92BF92CF92DF9296
:10129000EF92FF920F931F93CF93DF93EC016B01BB
:1012A0005A0149010E94EB049401A501B601CE0147
:1012B0000E94F1049401A501B601CE010E940E0521
:1012C000B701C8010E945D05B701C8010E94C205AF
:1012D000DF91CF911F910F91FF90EF90DF90CF9012
:1012E000BF90AF909F908F907F906F900895CF9315
:1012F000DF931F92CDB7DEB70E947A068AEA0E947A
:1013000063062FEF8FEF92E0215080409040E1F78D
:1013100000C000C08EB189838FB189830F90DF91A7
:10132000CF91089580E00E94850A81E48A95F1F7C3
:1013300000C081E00E94850A81E48A95F1F700C02F
:1013400082E00E94850A81E48A95F1F700C083E07B
:101350000E94850A81E48A95F1F700C084E00E942A
:10136000850A81E48A95F1F700C085E00E94850A2C
:1013700081E48A95F1F700C080E00E948A0A81E446
:101380008A95F1F700C081E00E948A0A81E48A957B
:10139000F1F700C082E00E948A0A81E48A95F1F7A1
:1013A00000C083E00E948A0A81E48A95F1F700C0B8
:1013B00084E00E948A0A81E48A95F1F700C085E002
:1013C0000E948A0A81E48A95F1F700C008954F923D
:1013D0005F926F927F928F929F92AF92BF92CF92C5
:1013E000DF92EF92FF920F931F93CF93DF93CDB7CE
:1013F000DEB738010E941606B701C8010E94C20577
:10140000F501808191819F938F9387EC92E09F9368
:101410008F930E94D50CC8010E949A0AC6010E94AF
:10142000C30AF501808191810F900F900F900F906A
:10143000892BF1F0F30184818130F9F0A401B50129
:10144000C6010E94B90880E090EF0197F1F7DF91A3
:10145000CF911F910F91FF90EF90DF90CF90BF90B1
:10146000AF909F908F907F906F905F904F90089576
:10147000B401C7010E94DF07DDCFA601B401C50199
:101480000E947908DBCF60E08FE00E94BD0B8FE007
:101490000E949D0B1F928F9389ED92E09F938F93F3
:1014A0000E94D50C4FEF60EF8FE00E94E00B8FE0C1
:1014B0000E949D0B1F928F938BEF92E09F938F93CF
:1014C0000E94D50C8DB79EB708960FB6F8949EBFB4
:1014D0000FBE8DBF0895CF93DF93C82FD62F0E94E4
:1014E0007E0685E00E9463068D2F0E9463068C2F86
:1014F0000E9463060E9482068FEF9FEB0197F1F72F
:1015000000C00000DF91CF910895682F81E00E9414
:101510006B0A0895682F80E00E946B0A0895CF93AC
:10152000C0E06C2F80E00E946B0ACF5FC630C9F725
:10153000CF9108951F93CF93DF93EC010E947E0615
:1015400083E00E94630681E48A95F1F700C090E091
:1015500080E00E94720683E08A95F1F7000090E037
:1015600080E00E94720683E08A95F1F7000090E027
:1015700080E00E947206182F0E9482061C83DF9171
:10158000CF911F910895FF920F931F93CF93DF93F5
:10159000EC010E947E0684E00E94630681E48A9545
:1015A000F1F700C090E080E00E947206F82E83E020
:1015B0008A95F1F7000090E080E00E947206082F03
:1015C00083E08A95F1F7000090E080E00E947206C7
:1015D000182F0E948206F88209831A83DF91CF9127
:1015E0001F910F91FF9008950E94B00B80E090EF43
:1015F0000197F1F740E460EE8FE00E94E00B40E4D9
:1016000060EE8EE00E94E00B08950F931F93CF933E
:10161000DF938C0180E30E949D0B88708111FECFC7
:10162000F801C081D181BE01769567957695679561
:101630007695679581E30E94BD0B6C2F6295660FCE
:10164000607E82E30E94BD0BF80162816F7085E3CA
:101650000E94BD0BF80182811816B4F4C0E090E03E
:1016600080E0800F911FFC01638186E38C0F0E9454
:10167000BD0BCF5F8C2F90E0F8012281022E000C71
:10168000330B821793076CF381E00E94FA0BDF9112
:10169000CF911F910F910895EF92FF921F93CF93D7
:1016A000DF937C018CE20E949D0B80FD07C080E0EF
:1016B000DF91CF911F91FF90EF90089581E60E94F6
:1016C0009D0BC82F82E60E949D0B2C2F30E0220F2D
:1016D000331F220F331F220F331F82958695877089
:1016E000282BF7013183208385E60E949D0B8930EA
:1016F000F8F088E0F701828310E0D0E0C0E086E6F1
:10170000810F0E949D0BCE0DDF1D8B831F5FC12FAC
:10171000D0E0F7018281082E000C990BC817D90779
:1017200074F340E061E08CE20E94E00B81E0C0CF06
:10173000F7018283181604F3F4CFCF93C82F0E94C9
:10174000860683E00E9463068C2F0E94630680E079
:101750000E946A06C82F0E9482068C2FCF9108959E
:101760000E94860680EC0E9463060E94820608950D
:101770000E9482060E94B00B0895CF93DF93D82F6A
:10178000C62F0E94860682E00E9463068D2F0E946B
:1017900063068C2F0E9463060E948206DF91CF9120
:1017A0000895CF930E94860680EA0E94630680E037
:1017B0000E946A06C82F0E9482068C2FCF9108953E
:1017C0001F93CF93DF93182FD62FC42F0E94860626
:1017D00085E00E946306812F0E9463068D2F0E9480
:1017E00063068C2F0E9463060E948206DF91CF91D0
:1017F0001F910895CF93C82F0E9486068C2F806872
:101800000E9463060E948206CF91089597FB072EDF
:1018100016F4009407D077FD09D00E941A0C07FC3B
:1018200005D03EF4909581959F4F089570956195F0
:101830007F4F0895AA1BBB1B51E107C0AA1FBB1F06
:10184000A617B70710F0A61BB70B881F991F5A954C
:10185000A9F780959095BC01CD0108958F929F9234
:10186000AF92BF92CF92DF92EF92FF92CF93DF932E
:10187000EC01688179818A819B81611571058105FF
:10188000910521F464E279ED8BE597E02DE133EFEA
:1018900041E050E00E94DC1049015A019B01AC017B
:1018A000A7EAB1E40E94FB106B017C01ACEEB4EF3F
:1018B000A50194010E940911DC01CB018C0D9D1D35
:1018C000AE1DBF1DB7FF03C00197A109B0488883B3
:1018D0009983AA83BB839F77DF91CF91FF90EF908D
:1018E000DF90CF90BF90AF909F908F9008950E940F
:1018F0002E0C089584E091E00E942E0C0895B0E033
:10190000A0E08093040190930501A0930601B09399
:10191000070108950F931F93CF93DF93009759F416
:101920006115710541F4F0E0E0E0CF01DF91CF9166
:101930001F910F9108958B01EC016EE070E081E042
:1019400090E00E94F00EFC01892B69F380E883830C
:101950000115110571F01387028781E88383809157
:101960003D0390913E03892B21F4F0933E03E093D5
:101970003D032097D1F2D187C08783818260838322
:1019800080913F0390914003892B79F6F0934003B7
:10199000E0933F038091410390914203892B29F604
:1019A000F0934203E0934103C0CFB0E0A0E0EBED41
:1019B000FCE00C941E11AE014B5F5F4FFA01619188
:1019C0007191AF0180913F03909140030E94160DE9
:1019D000E2E00C943A110F931F93CF93DF93E091C1
:1019E0003F03F09140032381EC0110E000E021FD72
:1019F00008C00FEF1FEF14C00995892B11F00FEFEE
:101A00001FEF899160913F0370914003DB011896AD
:101A1000ED91FC918111F0CF8AE00995892B49F76E
:101A2000C801DF91CF911F910F910895ABE0B0E015
:101A3000ECE1FDE00C940E117C013B018A01FC01FC
:101A400017821682838181FFC8C1CE0101965C0195
:101A5000F7019381F30193FD859193FF81913F01FC
:101A6000882309F453C1853239F493FD859193FF9E
:101A700081913F01853229F4B70190E00E944E1018
:101A8000E7CF912C212C312CFFE1F31538F08B326C
:101A900011F190F4803209F1833229F137FC3CC016
:101AA00020ED280F2A3050F536FE20C08AE0989E9F
:101AB000200D1124922E06C08D3291F0803371F7E3
:101AC000689430F8F30193FD859193FF81913F0174
:101AD0008111DACF21C0689431F8689432F8F2CFDE
:101AE000689433F8EFCF689434F8ECCFEAE02E9E98
:101AF000200D1124222E689435F8E4CF8E3229F47B
:101B000036FC04C1689436F8DDCF8C3619F468943D
:101B100037F8D8CF8836B1F2982F9F7D95549330FF
:101B2000E0F08336A1F18337C1F1833509F063C05A
:101B30002801F2E04F0E511CF801C080D180692DC0
:101B400070E036FC02C06FEF7FEFC6010E943110DB
:101B50004C01689437F882010AC00C5F1F4FFFE305
:101B6000F98388248394912C6501E89437F833FE37
:101B70002DC0522C8114910471F5552009F468CFC1
:101B8000B70180E290E00E944E105A94F6CFF8011F
:101B9000808189830E5F1F4FE4CF2801F2E04F0E52
:101BA000511CF801C080D180692D70E036FC02C064
:101BB0006FEF7FEFC6010E9443104C018201D5CF29
:101BC000B70180E290E00E944E102A942814190474
:101BD00009F0B0F7CECFF60137FC859137FE819141
:101BE0006F01B70190E00E944E1051105A94F1E03D
:101BF0008F1A9108BFCF843619F0893609F077C063
:101C0000F80137FE6BC060817181828193810C5F26
:101C10001F4FF32DFF763F2E97FF09C090958095BB
:101C2000709561957F4F8F4F9F4F689437F82AE0EA
:101C300030E0A5010E947E10C82ECA188C2C432CBF
:101C400036FE0CC0E89440F8C91440F434FE05C0D8
:101C500032FC03C0F32DFE7E4F2E892C44FE95C02E
:101C6000FE01EC0DF11D8081803309F087C0242D29
:101C7000297E422E842D8870582E43FC95C040FE4C
:101C80008FC09C2C821418F42C0C922C981844FEB3
:101C900091C0B70180E390E00E944E1042FE09C05F
:101CA00088E790E041FE02C088E590E0B7010E941D
:101CB0004E10C91408F48AC0CA94D12C9FEFC91AD7
:101CC000D90ACA0CDB1CF60182916F01B70190E0C2
:101CD0000E944E10AC14BD04B1F74FCF60817181EA
:101CE000072E000C880B990B0E5F1F4F92CFD32C41
:101CF000E894D4F82AE030E0853739F1232D297FA4
:101D0000D22E8F3601F148F48835A9F0F70186818B
:101D100097812B96E2E10C942A11803749F088379D
:101D2000A9F7D4FE02C06894D2F820E130E00DC0DB
:101D30006894D4F8F6CF34FE03C0822F8660D82E84
:101D400020E132E002C028E030E0F801D7FE0FC009
:101D500060817181828193810C5F1F4FA5010E9478
:101D60007E10C82ECA183D2CE89437F867CF6081E2
:101D7000718190E080E00E5F1F4FF0CF42FC02C007
:101D8000839478CF8394839475CF842D867809F4D7
:101D900071CFF6CFB70180E290E00E944E1083949D
:101DA0008214C0F3512C73CF522C5818821408F4AB
:101DB0006ECFF8CF842D867809F47BCF8BE241FE7D
:101DC00080E247FC8DE2B70190E071CFB70180E37C
:101DD00090E00E944E109A946CCF8FEF9FEF99CFB6
:101DE0000F931F93CF93DF93869F8001879F100DE2
:101DF000969F100D1124C8010E940C0FEC01009752
:101E000029F0A80170E060E00E943C10CE01DF9153
:101E1000CF911F910F9108950F931F93CF93DF934D
:101E20008230910510F482E090E0E0914503F0915A
:101E3000460330E020E0B0E0A0E0309799F42115AF
:101E4000310509F44AC0281B390B24303105D8F577
:101E50008A819B816115710589F1FB0193838283DE
:101E6000FE0111C040815181028113814817590739
:101E7000E0F04817590799F4109761F012960C9307
:101E8000129713961C933296CF01DF91CF911F9139
:101E90000F9108950093450310934603F4CF211545
:101EA000310551F04217530738F0A901DB019A01BF
:101EB000BD01DF01F801C1CFEF01F9CF90934603D7
:101EC00080934503CDCFFE01E20FF31F81939193E1
:101ED0002250310939832883D7CF20914303309191
:101EE0004403232B41F420910A0130910B013093DC
:101EF00044032093430320910801309109012115E7
:101F0000310541F42DB73EB740910C0150910D01C0
:101F1000241B350BE0914303F0914403E217F307D0
:101F2000A0F42E1B3F0B2817390778F0AC014E5F49
:101F30005F4F2417350748F04E0F5F1F509344033F
:101F400040934303819391939FCFF0E0E0E09CCFD7
:101F5000CF93DF930097E9F0FC013297138212824E
:101F6000A0914503B0914603ED0130E020E01097C9
:101F7000A1F420813181820F931F2091430330917E
:101F800044032817390709F061C0F0934403E09334
:101F90004303DF91CF910895EA01CE17DF07E8F5FB
:101FA0004A815B819E0141155105B1F7E901FB832F
:101FB000EA8349915991C40FD51FEC17FD0761F4CD
:101FC000808191810296840F951FE901998388830E
:101FD000828193819B838A83F0E0E0E012968D9169
:101FE0009C9113970097B9F52D913C911197CD01D4
:101FF0000296820F931F20914303309144032817C8
:10200000390739F6309751F510924603109245037F
:10201000B0934403A0934303BCCFD383C2834081D6
:102020005181840F951FC817D90761F44E5F5F4F28
:1020300088819981480F591F518340838A819B81F0
:10204000938382832115310509F0B0CFF0934603C5
:10205000E09345039ECFFD01DC01C0CF13821282C5
:10206000D7CFFC010590615070400110D8F78095E2
:1020700090958E0F9F1F0895DC0101C06D93415014
:102080005040E0F70895FC0161507040019001104C
:10209000D8F7809590958E0F9F1F08950F931F93EB
:1020A000CF93DF93182F092FEB018B8181FD09C09E
:1020B0001FEF0FEF812F902FDF91CF911F910F9185
:1020C000089582FF14C02E813F818C819D81281745
:1020D00039073CF4E881F981CF010196998388831F
:1020E00010838E819F8101969F838E83E3CFE88545
:1020F000F985812F0995892BA1F3DACFFA01AA2757
:10210000283051F1203181F1E8946F936E7F6E5F3A
:102110007F4F8F4F9F4FAF4FB1E03ED0B4E03CD0E8
:10212000670F781F891F9A1FA11D680F791F8A1FCB
:10213000911DA11D6A0F711D811D911DA11D20D032
:1021400009F468943F912AE0269F11243019305DEC
:102150003193DEF6CF010895462F4770405D4193DD
:10216000B3E00FD0C9F7F6CF462F4F70405D4A332A
:1021700018F0495D31FD4052419302D0A9F7EACFF2
:10218000B4E0A6959795879577956795BA95C9F721
:1021900000976105710508959B01AC010A2E069414
:1021A0005795479537952795BA95C9F7620F731FCD
:1021B000841F951FA01D0895052E97FB1EF4009403
:1021C0000E94F31057FD07D00E94451107FC03D071
:1021D0004EF40C94F31050954095309521953F4F57
:1021E0004F4F5F4F089590958095709561957F4F03
:1021F0008F4F9F4F08950E946711A59F900DB49F28
:10220000900DA49F800D911D11240895B7FF0C948B
:10221000FB100E94FB10821B930B08952F923F929C
:102220004F925F926F927F928F929F92AF92BF92E6
:10223000CF92DF92EF92FF920F931F93CF93DF9392
:10224000CDB7DEB7CA1BDB0B0FB6F894DEBF0FBEEF
:10225000CDBF09942A88398848885F846E847D843C
:102260008C849B84AA84B984C884DF80EE80FD803E
:102270000C811B81AA81B981CE0FD11D0FB6F894B4
:10228000DEBF0FBECDBFED010895A1E21A2EAA1B3D
:10229000BB1BFD010DC0AA1FBB1FEE1FFF1FA21716
:1022A000B307E407F50720F0A21BB30BE40BF50B13
:1022B000661F771F881F991F1A9469F7609570959C
:1022C000809590959B01AC01BD01CF010895A29F1F
:1022D000B001B39FC001A39F700D811D1124911DFA
:1022E000B29F700D811D1124911D0895F894FFCFA8
:1022F00004000014010000000000470320005258B1
:102300002069643D307825303358206C656E3D255A
:102310006420646174613A00202530326300537494
:10232000617274696E67205352414D2074657374F5
:102330002E2E2E0D005772697465207068617365CA
:10234000206572726F723A206578745F72616D5B9E
:102350002534645D203D2025303258202873686F75
:10236000756C642062652025303258290D0A0052B0
:10237000657472696576616C20706861736520654B
:1023800072726F723A206578745F72616D5B25348A
:10239000645D203D2025303258202873686F756CAD
:1023A000642062652025303258290D0A00535241BD
:1023B0004D207465737420636F6D706C6574656413
:1023C0002077697468200D0A253464206572726F65
:1023D000727320696E20777269746520706861730A
:1023E0006520616E64200D0A253464206572726F69
:1023F000727320696E2072657472696576616C20F3
:1024000070686173650D0A0D0A006C656674007270
:102410006967687400757000646F776E006E65752B
:102420007472616C00756E6B6E6F776E006A6F7997
:10243000737469636B20783A2025640D0A006A6F13
:1024400079737469636B20793A2025640D0A0074EE
:102450006F75636870616420783A2025640D0A0006
:10246000746F75636870616420793A2025640D0A81
:1024700000646972656374696F6E206A6F79737442
:1024800069636B202573200D0A004D454E550050A1
:102490004C4159200053434F5245424F4152440052
:1024A0004C65747320676F2100312E00322E00338B
:1024B0002E00546573740073696465206572207022
:1024C00061202564200D0A20006461746120736519
:1024D0006E6474206F6720666174742074696C6226
:1024E000616B653A202564200D0A006461746120E7
:1024F00073656E6474206F672066617474206F6703
:10250000206D6F6469666973657272742074696C9A
:0C25100062616B653A202564200D0A0012
:00000001FF
