:100000000C9438000C9455000C9455000C94550039
:100010000C9455000C9455000C9455000C9455000C
:100020000C9455000C9455000C9455000C945500FC
:100030000C9455000C9455000C9455000C945500EC
:100040000C9455000C9455000C9455000C945500DC
:100050000C9455000C9455000C9455000C945500CC
:100060000C9455000C9455000C9455000C945500BC
:1000700011241FBECFEFD4E0DEBFCDBF11E0A0E062
:10008000B1E0EEE1F4E002C005900D92A630B107B8
:10009000D9F721E0A6E0B1E001C01D92A031B2077E
:1000A000E1F70E9457000C940D020C9400008A9A0C
:1000B000319A8FE190E00E946D0085B7806885BF1E
:1000C00082E087B985E58BBBFFCF5D9BFECF8CB906
:1000D00008955F9BFECF8CB1089590BD89B988E1EA
:1000E0008AB98EE880BD69E670E085E690E00E94FE
:1000F0007A0008950F931F93CF93DF93009759F4DD
:100100006115710541F4F0E0E0E0CF01DF91CF919E
:100110001F910F9108958B01EC016EE070E081E07A
:1001200090E00E94C500FC01892B69F380E883837D
:100130000115110571F01387028781E8838380918F
:10014000060190910701892B21F4F0930701E093B8
:1001500006012097D1F2D187C08783818260838393
:100160008091080190910901892B79F6F09309019A
:10017000E093080180910A0190910B01892B29F6E7
:10018000F0930B01E0930A01C0CF0F931F93CF931D
:10019000DF93869F8001879F100D969F100D11247D
:1001A000C8010E94E100EC01009729F0A80170E06D
:1001B00060E00E940602CE01DF91CF911F910F9166
:1001C00008950F931F93CF93DF938230910510F41E
:1001D00082E090E0E0910E01F0910F0130E020E02C
:1001E000B0E0A0E0309799F42115310509F44AC038
:1001F000281B390B24303105D8F58A819B81611584
:10020000710589F1FB0193838283FE0111C0408156
:1002100051810281138148175907E0F048175907A7
:1002200099F4109761F012960C93129713961C9301
:100230003296CF01DF91CF911F910F9108950093D6
:100240000E0110930F01F4CF2115310551F0421723
:10025000530738F0A901DB019A01BD01DF01F80164
:10026000C1CFEF01F9CF90930F0180930E01CDCF55
:10027000FE01E20FF31F81939193225031093983DC
:100280002883D7CF20910C0130910D01232B41F40D
:10029000209102013091030130930D0120930C0154
:1002A00020910001309101012115310541F42DB754
:1002B0003EB74091040150910501241B350BE0919C
:1002C0000C01F0910D01E217F307A0F42E1B3F0B78
:1002D0002817390778F0AC014E5F5F4F24173507B8
:1002E00048F04E0F5F1F50930D0140930C01819316
:1002F00091939FCFF0E0E0E09CCFCF93DF93009706
:10030000E9F0FC01329713821282A0910E01B091A4
:100310000F01ED0130E020E01097A1F42081318140
:10032000820F931F20910C0130910D01281739077E
:1003300009F061C0F0930D01E0930C01DF91CF91C2
:100340000895EA01CE17DF07E8F54A815B819E0137
:1003500041155105B1F7E901FB83EA8349915991B0
:10036000C40FD51FEC17FD0761F4808191810296BF
:10037000840F951FE90199838883828193819B83F0
:100380008A83F0E0E0E012968D919C91139700979C
:10039000B9F52D913C911197CD010296820F931FD3
:1003A00020910C0130910D012817390739F630974B
:1003B00051F510920F0110920E01B0930D01A09310
:1003C0000C01BCCFD383C28340815181840F951F20
:1003D000C817D90761F44E5F5F4F88819981480F34
:1003E000591F518340838A819B8193838283211586
:1003F000310509F0B0CFF0930F01E0930E019ECFCD
:10040000FD01DC01C0CF13821282D7CFDC0101C015
:0E0410006D9341505040E0F70895F894FFCFEF
:06041E00000010012000A7
:00000001FF
