:100000000C9438000C9455000C9455000C94550039
:100010000C9455000C9455000C9455000C9455000C
:100020000C9455000C9455000C9455000C945500FC
:100030000C9455000C9455000C9455000C945500EC
:100040000C9455000C9455000C9455000C945500DC
:100050000C9455000C9455000C9455000C945500CC
:100060000C9455000C9455000C9455000C945500BC
:1000700011241FBECFEFD4E0DEBFCDBF11E0A0E062
:10008000B1E0EAECFCE002C005900D92A63FB1079A
:10009000D9F722E0A6EFB1E001C01D92A030B2076F
:1000A000E1F70E9457000C9463060C9400008FE166
:1000B00090E00E9468000E9475000E940D01FFCF31
:1000C0005D9BFECF8CB908955F9BFECF8CB10895E8
:1000D00090BD89B988E18AB98EE880BD64E670E098
:1000E00080E690E00E947701089585B7806885BF1B
:1000F00080B7806280BF0895FB01F85E8083089519
:10010000985EFC0180810895CF92DF92EF92FF927A
:100110000F931F93CF93DF938AE091E00E94D80161
:100120000E9467016C010E946C01D0E0C0E010E009
:1001300000E00F2EF1E2EF2EF1E0FF2EF02D05C0D2
:100140002196C11598E0D907F1F00E946701FE01E0
:10015000F85E80832081281799F399279F938F93C6
:100160001F922F93DF93CF93FF92EF920E94C201D1
:100170000F5F1F4F8DB79EB708960FB6F8949EBFBE
:100180000FBE8DBFDDCFC6010E946C01D0E0C0E084
:10019000F12CE12C0F2EFBE5CF2EF1E0DF2EF02D20
:1001A00005C02196C11598E0D907F1F00E946701BA
:1001B000FE01F85E20812817A1F399279F938F9362
:1001C0001F922F93DF93CF93DF92CF920E94C201B1
:1001D0008FEFE81AF80A8DB79EB708960FB6F89415
:1001E0009EBF0FBE8DBFDDCFFF92EF921F930F9387
:1001F00089E991E09F938F930E94C2010F900F9025
:100200000F900F900F900F90DF91CF911F910F9152
:10021000FF90EF90DF90CF90089585B7806885BFFD
:1002200080B7806280BF8D9A83E08FBD89E18EBDEB
:100230000895089508958F929F92AF92BF92CF92A2
:10024000DF92EF92FF92CF93DF93EC016881798187
:100250008A819B81611571058105910521F464E214
:1002600079ED8BE597E02DE133EF41E050E00E941E
:10027000C90549015A019B01AC01A7EAB1E40E94FA
:10028000E8056B017C01ACEEB4EFA50194010E947E
:10029000F605DC01CB018C0D9D1DAE1DBF1DB7FF0A
:1002A00003C00197A109B04888839983AA83BB83BF
:1002B0009F77DF91CF91FF90EF90DF90CF90BF902D
:1002C000AF909F908F9008950E941B01089580E049
:1002D00091E00E941B010895B0E0A0E0809300012E
:1002E00090930101A0930201B093030108950F932D
:1002F0001F93CF93DF93009759F46115710541F473
:10030000F0E0E0E0CF01DF91CF911F910F910895D0
:100310008B01EC016EE070E081E090E00E94DD0373
:10032000FC01892B69F380E883830115110571F0C5
:100330001387028781E883838091F6019091F7010A
:10034000892B21F4F093F701E093F6012097D1F285
:10035000D187C0878381826083838091F8019091E7
:10036000F901892B79F6F093F901E093F801809176
:10037000FA019091FB01892B29F6F093FB01E093A0
:10038000FA01C0CFB0E0A0E0E8ECF1E00C940B067D
:10039000AE014B5F5F4FFA0161917191AF018091A6
:1003A000F8019091F9010E940302E2E00C94270603
:1003B0000F931F93CF93DF93E091F801F091F90130
:1003C0002381EC0110E000E021FD08C00FEF1FEFDA
:1003D00014C00995892B11F00FEF1FEF89916091DF
:1003E000F8017091F901DB011896ED91FC918111F2
:1003F000F0CF8AE00995892B49F7C801DF91CF91A9
:100400001F910F910895ABE0B0E0E9E0F2E00C94A9
:10041000FB057C013B018A01FC0117821682838166
:1004200081FFC8C1CE0101965C01F7019381F30100
:1004300093FD859193FF81913F01882309F453C176
:10044000853239F493FD859193FF81913F01853287
:1004500029F4B70190E00E943B05E7CF912C212CB5
:10046000312CFFE1F31538F08B3211F190F480322A
:1004700009F1833229F137FC3CC020ED280F2A30E6
:1004800050F536FE20C08AE0989E200D1124922E51
:1004900006C08D3291F0803371F7689430F8F30123
:1004A00093FD859193FF81913F018111DACF21C0A6
:1004B000689431F8689432F8F2CF689433F8EFCF4B
:1004C000689434F8ECCFEAE02E9E200D1124222E01
:1004D000689435F8E4CF8E3229F436FC04C1689470
:1004E00036F8DDCF8C3619F4689437F8D8CF8836D3
:1004F000B1F2982F9F7D95549330E0F08336A1F1AF
:100500008337C1F1833509F063C02801F2E04F0E53
:10051000511CF801C080D180692D70E036FC02C00A
:100520006FEF7FEFC6010E941E054C01689437F8FB
:1005300082010AC00C5F1F4FFFE3F9838824839474
:10054000912C6501E89437F833FE2DC0522C8114AC
:10055000910471F5552009F468CFB70180E290E06D
:100560000E943B055A94F6CFF801808189830E5F83
:100570001F4FE4CF2801F2E04F0E511CF801C0805C
:10058000D180692D70E036FC02C06FEF7FEFC601AD
:100590000E9430054C018201D5CFB70180E290E086
:1005A0000E943B052A942814190409F0B0F7CECF15
:1005B000F60137FC859137FE81916F01B70190E01C
:1005C0000E943B0551105A94F1E08F1A9108BFCF59
:1005D000843619F0893609F077C0F80137FE6BC010
:1005E00060817181828193810C5F1F4FF32DFF76B3
:1005F0003F2E97FF09C090958095709561957F4F2C
:100600008F4F9F4F689437F82AE030E0A5010E9491
:100610006B05C82ECA188C2C432C36FE0CC0E894EF
:1006200040F8C91440F434FE05C032FC03C0F32D79
:10063000FE7E4F2E892C44FE95C0FE01EC0DF11D6F
:100640008081803309F087C0242D297E422E842D9D
:100650008870582E43FC95C040FE8FC09C2C82149D
:1006600018F42C0C922C981844FE91C0B70180E32A
:1006700090E00E943B0542FE09C088E790E041FE01
:1006800002C088E590E0B7010E943B05C91408F458
:100690008AC0CA94D12C9FEFC91AD90ACA0CDB1C94
:1006A000F60182916F01B70190E00E943B05AC1406
:1006B000BD04B1F74FCF60817181072E000C880B0C
:1006C000990B0E5F1F4F92CFD32CE894D4F82AE0F9
:1006D00030E0853739F1232D297FD22E8F3601F175
:1006E00048F48835A9F0F701868197812B96E2E1DD
:1006F0000C941706803749F08837A9F7D4FE02C05A
:100700006894D2F820E130E00DC06894D4F8F6CFB8
:1007100034FE03C0822F8660D82E20E132E002C072
:1007200028E030E0F801D7FE0FC06081718182813E
:1007300093810C5F1F4FA5010E946B05C82ECA183C
:100740003D2CE89437F867CF6081718190E080E0BC
:100750000E5F1F4FF0CF42FC02C0839478CF83948A
:10076000839475CF842D867809F471CFF6CFB701C5
:1007700080E290E00E943B0583948214C0F3512CE8
:1007800073CF522C5818821408F46ECFF8CF842DF2
:10079000867809F47BCF8BE241FE80E247FC8DE254
:1007A000B70190E071CFB70180E390E00E943B0574
:1007B0009A946CCF8FEF9FEF99CF0F931F93CF93A6
:1007C000DF93869F8001879F100D969F100D112447
:1007D000C8010E94F903EC01009729F0A80170E01C
:1007E00060E00E942905CE01DF91CF911F910F910A
:1007F00008950F931F93CF93DF938230910510F4E8
:1008000082E090E0E091FE01F091FF0130E020E015
:10081000B0E0A0E0309799F42115310509F44AC001
:10082000281B390B24303105D8F58A819B8161154D
:10083000710589F1FB0193838283FE0111C0408120
:1008400051810281138148175907E0F04817590771
:1008500099F4109761F012960C93129713961C93CB
:100860003296CF01DF91CF911F910F9108950093A0
:10087000FE011093FF01F4CF2115310551F042170D
:10088000530738F0A901DB019A01BD01DF01F8012E
:10089000C1CFEF01F9CF9093FF018093FE01CDCF3F
:1008A000FE01E20FF31F81939193225031093983A6
:1008B0002883D7CF2091FC013091FD01232B41F4F7
:1008C00020910601309107013093FD012093FC0136
:1008D00020910401309105012115310541F42DB716
:1008E0003EB74091080150910901241B350BE0915E
:1008F000FC01F091FD01E217F307A0F42E1B3F0B62
:100900002817390778F0AC014E5F5F4F2417350781
:1009100048F04E0F5F1F5093FD014093FC018193FF
:1009200091939FCFF0E0E0E09CCFCF93DF930097CF
:10093000E9F0FC01329713821282A091FE01B0917E
:10094000FF01ED0130E020E01097A1F4208131811A
:10095000820F931F2091FC013091FD012817390768
:1009600009F061C0F093FD01E093FC01DF91CF91AC
:100970000895EA01CE17DF07E8F54A815B819E0101
:1009800041155105B1F7E901FB83EA83499159917A
:10099000C40FD51FEC17FD0761F480819181029689
:1009A000840F951FE90199838883828193819B83BA
:1009B0008A83F0E0E0E012968D919C911397009766
:1009C000B9F52D913C911197CD010296820F931F9D
:1009D0002091FC013091FD012817390739F6309735
:1009E00051F51092FF011092FE01B093FD01A0930A
:1009F000FC01BCCFD383C28340815181840F951FFA
:100A0000C817D90761F44E5F5F4F88819981480FFD
:100A1000591F518340838A819B819383828321154F
:100A2000310509F0B0CFF093FF01E093FE019ECFB6
:100A3000FD01DC01C0CF13821282D7CFFC010590EB
:100A4000615070400110D8F7809590958E0F9F1FD0
:100A50000895DC0101C06D9341505040E0F70895C6
:100A6000FC016150704001900110D8F7809590957D
:100A70008E0F9F1F08950F931F93CF93DF93182F0F
:100A8000092FEB018B8181FD09C01FEF0FEF812F33
:100A9000902FDF91CF911F910F91089582FF14C085
:100AA0002E813F818C819D81281739073CF4E88194
:100AB000F981CF0101969983888310838E819F816C
:100AC00001969F838E83E3CFE885F985812F099571
:100AD000892BA1F3DACFFA01AA27283051F120316E
:100AE00081F1E8946F936E7F6E5F7F4F8F4F9F4FC2
:100AF000AF4FB1E03ED0B4E03CD0670F781F891F04
:100B00009A1FA11D680F791F8A1F911DA11D6A0FD1
:100B1000711D811D911DA11D20D009F468943F9184
:100B20002AE0269F11243019305D3193DEF6CF0183
:100B30000895462F4770405D4193B3E00FD0C9F749
:100B4000F6CF462F4F70405D4A3318F0495D31FDB6
:100B50004052419302D0A9F7EACFB4E0A695979509
:100B6000879577956795BA95C9F7009761057105DF
:100B700008959B01AC010A2E069457954795379529
:100B80002795BA95C9F7620F731F841F951FA01D83
:100B90000895052E97FB1EF400940E94E00557FD72
:100BA00007D00E94320607FC03D04EF40C94E005F7
:100BB00050954095309521953F4F4F4F5F4F089589
:100BC00090958095709561957F4F8F4F9F4F0895B9
:100BD0000E945406A59F900DB49F900DA49F800D78
:100BE000911D11240895B7FF0C94E8050E94E805B3
:100BF000821B930B08952F923F924F925F926F92B8
:100C00007F928F929F92AF92BF92CF92DF92EF929C
:100C1000FF920F931F93CF93DF93CDB7DEB7CA1B1D
:100C2000DB0B0FB6F894DEBF0FBECDBF09942A8848
:100C3000398848885F846E847D848C849B84AA84F0
:100C4000B984C884DF80EE80FD800C811B81AA817D
:100C5000B981CE0FD11D0FB6F894DEBF0FBECDBF48
:100C6000ED010895A1E21A2EAA1BBB1BFD010DC0C8
:100C7000AA1FBB1FEE1FFF1FA217B307E407F5074C
:100C800020F0A21BB30BE40BF50B661F771F881F28
:100C9000991F1A9469F760957095809590959B01BE
:100CA000AC01BD01CF010895A29FB001B39FC00167
:100CB000A39F700D811D1124911DB29F700D811D88
:0A0CC0001124911D0895F894FFCF50
:100CCA000100000000000002200053746172746980
:100CDA006E67205352414D20746573742E2E2E0D6B
:100CEA000057726974652070686173652065727255
:100CFA006F723A206578745F72616D5B2534645D4A
:100D0A00203D2025303258202873686F756C642086
:100D1A0062652025303258290D0A005265747269BD
:100D2A006576616C207068617365206572726F7296
:100D3A003A206578745F72616D5B2534645D203D8D
:100D4A002025303258202873686F756C64206265DC
:100D5A002025303258290D0A005352414D2074651E
:100D6A00737420636F6D706C657465642077697441
:100D7A0068200D0A253464206572726F72732069C7
:100D8A006E20777269746520706861736520616E80
:100D9A0064200D0A253464206572726F72732069AB
:100DAA006E2072657472696576616C207068617311
:060DBA00650D0A0D0A00A0
:00000001FF
