:100000000C9438000C9442000C9442000C94420072
:100010000C9442000C9442000C9442000C94420058
:100020000C9442000C9442000C9442000C94420048
:100030000C9442000C9442000C9442000C94420038
:100040000C9442000C9442000C9442000C94420028
:100050000C9442000C9442000C9442000C94420018
:100060000C9442000C9442000C9442000C94420008
:1000700011241FBECFEFD4E0DEBFCDBF0E944400ED
:100080000C946A000C9400008A9A6BE070E080E0A7
:1000900090E00E945B0081E690E00E9462002FE702
:1000A0008AE196E0215080409040E1F700C00000D6
:1000B0000E946600F0CF90BD89B988E18AB98EE8C8
:1000C00080BD08955D9BFECF8CB908955F9BFECFE8
:0800D0008CB10895F894FFCFF4
:00000001FF
